:060000000A128A11D92A40
:10000800A100030EA0000B1812200C18C2200B1917
:10001800A420200E8300A10E210E0900AE01392074
:10002800172094205820061D1C20AB010B10080037
:100038009F20061D2A182A202B180800AA182F20EE
:100048002B1808002A1934202B1808002A10AA1483
:100058002A11AB0A08002A10AA102A15AB0A0800B0
:100068002A14AA102A11AB0A0800061E4020861D71
:100078004C200B10031108009F20061E2D08AE000F
:10008800FF30AE02031D492008003330AD070800D9
:100098009F20861D2D08AE003330AE02031D55206B
:1000A80008003330AD02080008118811061F6020CF
:1000B800861E66200311080008159F20061F3B1C9A
:1000C8006C28802888159F20861E3B1C76288A2845
:1000D8003208AE002D30AE02031D73200800013037
:1000E800B20708003208AE000030AE02031D7D20C2
:1000F80008000130B20208003408AE001230AE0227
:10010800031D872008000130B40708003408AE003A
:100118000030AE02031D912008000130B40208002F
:10012800861F972008009F20861F0130BB063B1CB6
:100138003C2B432B08009630C900C90BA1280800A6
:1001480053230F3089004818AD28C818B428481917
:10015800BB284810440887000910C8144811080033
:10016800C81045088700891048154810080048112C
:100178004608870009114814C81008002A18632B7C
:0A018800AA186F2B2A19812B08001A
:100200008A010A148F0582073F3406345B344F3469
:1002100066346D347D3407347F346F3477347C3406
:1002200039345E34793471348A010A14FF05820747
:10023000743477347A347D3480348334863489342A
:100240008D3490349334963499349C349F34A23452
:10025000A434A734AA34AD34B034B234B534B7348E
:10026000BA34BC34BF34C134C334C634C834CA34DD
:10027000CC34CE34D034D234D434D534D734D93449
:10028000DA34DB34DD34DE34DF34E034E134E234DC
:10029000E334E434E534E534E634E634E634E73494
:1002A000E734E734E734E734E734E634E634E63479
:1002B000E534E534E434E334E234E134E034DF348B
:1002C000DE34DD34DB34DA34D934D734D534D434C5
:1002D000D234D034CE34CC34CA34C834C634C33427
:1002E000C134BF34BC34BA34B734B534B234B034AA
:1002F000AD34AA34A734A434A2349F349C34993446
:100300009634933490348D348934863483348034F5
:100310007D347A347734733470346D346A346734AE
:10032000643461345E345A345734543451344E3466
:100330004B3448344534433440343D343A34373414
:100340003534323430342D342B34283426342434AC
:1003500021341F341D341B3419341734153413342D
:10036000123410340E340D340C340A340934083489
:1003700007340634053404340334023402340134BF
:1003800001340134003400340034003400340034CB
:1003900001340134013402340234033404340534AA
:1003A00006340734083409340A340C340D340E345E
:1003B0001034123413341534173419341B341D34EB
:1003C0001F3421342434263428342B342D34303453
:1003D0003234353437343A343D34403443344534A0
:1003E00048344B344E345134543457345A345E34D8
:1003F0006134643467346A346D34703474348A011F
:100400000A14FF0582070A340B34143415341634E9
:100410001734203421342A345434F234A834C83404
:10042000F0341834A034B434C834F0341834A03460
:10043000B434C834E6340434223440345E34B7343F
:100440009034A934C234DB34F4340D3426343F34D0
:10045000D0348A34BC34EE34203452348434B6344C
:100460008A010A14FF058207E834DC34D034E4340E
:10047000B834AC34A034D434C4347C3470346434F0
:1004800058344C344034B434A8349C34C4348A01D5
:100490000A14FF058207DC343D34EE3458349E34B0
:1004A0003E34F634BE342C3496347034CA34CA34F4
:1004B0003C34DC340634E6344A341E34DC348234D2
:1004C000F2344A348E34E0341E34803478349A3432
:1004D000CA34C834DA34EA34F834063412341C34FA
:1004E0002634303440344C34623464346C347434E4
:1004F0007C348A010A14FF058207AC34C234CE343E
:10050000D634DC34E034E434E634E834EA34EA3433
:10051000EC34EE34EE34F034F034F234F234F434BB
:100520008A010A14FF0582075A34AC34C8345634A1
:10053000DE34E4349E342A349834EE347834FA3499
:100540003C3462347C3490349E34A834B234BE34AB
:10055000C834CE34CE34D434D834DE34E234E43447
:10056000E634EA34EA34EC34EE34EE34EE34F0348B
:10057000F034F234F234F234F434F434F634F63441
:10058000F634F8348A010A14FF058207F834FA3485
:10059000FC34FC34FC34FE34FE34FE34FE34FE34D1
:1005A000FE34FE34FE34FE34FE34FE34FE34FE34BB
:1005B000FE342A14AA102A113B102B10FF30AD0074
:1005C0000030B2000030B400F422182320232D2381
:1005D000342353233C23592303138312D323C923E6
:1005E000BF23DD234A23EE2A0317831688018901DE
:1005F000031383168501860187018801890106148A
:100600008614061586150616861606178617811394
:100610001514951415159515151695161517951786
:10062000031383128501860187018801890108006F
:10063000031383128B178B160B168B150B100800E8
:100640000313831616149614161596151616961679
:10065000161796178B158B170800031383160F14A4
:100660000F178F160F1608000313831681128111BE
:10067000011181140110080003138312101490104B
:100680001016901608000313831210149010101205
:10069000901208003B1C4D2B502B081488100800AA
:1006A000081088140800031383120B11E630810030
:1006B0000800031383120C100313831230088E00FA
:1006C00031088E000800081688122D088500A8231E
:1006D00000308500A823031383120C1008000812B1
:1006E00088162D08A2008F23850AA20B732B2D08D4
:1006F000A2008F238503A20B792B031383120C1006
:10070000080008168816A301E630A3002308142168
:100710008500A30B862B031383120C1008003B1CCF
:1007200094233B189E23080003138312320890225F
:10073000B00030088E0031088F00080003138312C8
:100740003408C222B00030088E0031088F00080043
:100750003B1CAB2BB52B0313831232084722B0008E
:1007600030088E0031088F0008000313831234080C
:100770007922B00030088E0031088F000800C201D5
:100780000130C3020318C20A0318C02B0130C3078B
:100790000800C1010A30C3020318C10A0318CA2B9A
:1007A0000A30C3070800C0016430C3020318C00A3E
:1007B0000318D42B6430C307080042080021C4008A
:1007C00041080021C50040080021C60008003B1C6C
:1007D000EA2BEE2B3208FF21C30008003408302238
:0407E000C30008004A
:04400E00D420FF3F7C
:00000001FF
