:060000000A128A11142906
:10000800A100030EA0000B1810200B191620200EBB
:100018008300A10E210E0900061C850A861C850393
:100028000B1008004F21A20A2208783C031D080083
:10003800A201A40A24080B3C0319A4000319A50A69
:080048000313831203110800E9
:100200008A010A148F05820740347934243430344B
:10021000193412340234783400341034083403347E
:100220004634213406340E34202133213921402133
:1002300047214F215521031383125C2167211D297A
:10024000031783168801890103138316850186012C
:100250008701880106148614031383128501860121
:100260008701880108000313831681139514151460
:100270000800031383160F140F178F120F120800B4
:1002800003138316161496148B158B17080003138B
:1002900083168112811101118114011008000313CA
:1002A00083120B11063081000800031383128B1791
:1002B0008B168B150B1008002508063C0319A500AA
:1002C0002508002188000313831203110800240865
:0602D00000218700080078
:04400E00D420FF3F7C
:00000001FF
