:060000000A128A11142906
:10000800A100030EA0000B1810200B191620200EBB
:100018008300A10E210E0900061C850A861C850393
:100028000B1008004721880128181E28A818252821
:1000380028192C282810250887000814A814281126
:100048000800A8102608870088142815281008001A
:0E00580028112708870008152814A810080092
:100200008A010A148F05820740347934243430344B
:10021000193412340234783400341034083403347E
:100220004634213406340E3427213A214021552109
:100230004D2147215C212814A81028110313831293
:100240000508AC00812177216D2163212029031746
:1002500083168801890103138316850186018701AE
:100260008801061486140313831285018601870111
:1002700088010800031383168113951415140800D0
:10028000031383160F140F178F120F120800031396
:1002900083120B11E63081000800031383168112CC
:1002A0008111011181140110080003138316161423
:1002B00096148B158B170800031383128B178B165C
:1002C0008B150B10080029080021A5002A08002121
:1002D000A6002B080021A7000800A9010130AC02EC
:1002E0000318A90A03186E290130AC070800AA01F7
:1002F0000A30AC020318AA0A031878290A30AC079E
:100300000800AB016430AC020318AB0A0318822961
:060310006430AC07080098
:04400E00D420FF3F7C
:00000001FF
