:060000000A128A11122809
:10000800FE00030E83120313AE000408AF000A08B3
:10001800B0007F08B1000A128A1137280A128A1123
:1000280015280A128A118A220A128A11B6000A129F
:100038008A118B220A128A11B7000A128A118C229D
:100048000A128A11FD00A001A101A201A301A401C5
:10005800A501A601A701A801A901AA01AB01830175
:100068000A128A119A290B1D3A283B28AE28210822
:10007800FA002008F9000A128A11BB200A128A1114
:100088008312031386012708F1002608F0000A12DC
:100098008A117F220A128A1183120313AC00AD0160
:1000A8002C08A4002D08A500240888000430860028
:1000B8001A3083120313AD00F730AC00AC0B622882
:1000C800AD0B622867288312031386012908F10003
:1000D8002808F0000A128A117F220A128A11831254
:1000E8000313AC00AD012C08A4002D08A5002408BA
:1000F8008800023086001A3083120313AD00F730EF
:10010800AC00AC0B8528AD0B85288A288312031315
:1001180086012B08F1002A08F0000A128A117F22B2
:100128000A128A1183120313AC00AD012C08A40033
:100138002D08A50024088800013086001A30831293
:100148000313AD00F730AC00AC0BA828AD0BA82802
:10015800AD280B11831203133108FF0030088A0001
:100168002F0884002E0E8300FE0E7E0E090002303A
:10017800F0000030F1007A08F3007908F2000A1262
:100188008A1133210A128A117108FC007008FB00D9
:100198006430F0000030F1007C08F3007B08F200C6
:1001A8000A128A1133210A128A118312031336089C
:1001B8008400700883138000840A71088000360860
:1001C80084000008F000840A0008F1009C30F20066
:1001D800FF30F3000A128A115A220A128A117B0888
:1001E8007007FB007C0803187C0A7107FC000A30C2
:1001F800F0000030F1007C08F3007B08F2000A12DE
:100208008A1133210A128A117D0884007008831329
:100218008000840A710880007D0884000008F000CE
:10022800840A0008F100F630F200FF30F3000A12E9
:100238008A115A220A128A117B087007FB007C086F
:1002480003187C0A7107FC00831203133708840023
:100258007B0883138000840A7C0880000800F6016C
:10026800F11F372938293F29F009F109F00A031944
:10027800F10AF601F60AF31F422943294C29F2092B
:10028800F309F20A0319F30A0130F4007408F606B8
:10029800F701F801700871040319532954298B29AF
:1002A800F501F50A622901300310F00DF10DFF3E4A
:1002B800031D58290130F4007408F507F11F65295A
:1002C8006629572901300310F70DF80DFF3E031D6D
:1002D800672971087302031D732970087202031CD1
:1002E800762977297E297008F2027108031CF30326
:1002F800F302771401300310F10CF00CFF3E031DDC
:100308007F290130F502031D8A298B296629760881
:1003180003198F2990299529F709F809F70A03196C
:10032800F80A7808F1007708F00008000A128A1124
:10033800E9210A128A11C330831203139F059F14FF
:100348009F18A729A829A4291E08A3008316031308
:100358001E0883120313A2002308B5002208B40064
:10036800350DB50CB40C350DB50CB40C340887003C
:100378001A3083120313B500F730B400B40BC22946
:10038800B50BC229C729831203131F08C3391038B4
:100398009F009F149F18D129D229CE291E08A10099
:1003A800831603131E0883120313A0001A30831246
:1003B8000313B500F730B400B40BE029B50BE029FE
:1003C800E5299F290A128A11122883160317880122
:1003D80089018316031386018701880170308F0411
:1003E8000F148112811107308104C830831203135E
:1003F80081000B118B168B178316031305148316B4
:1004080003170814C330831203139F0503308312A4
:100418000313B3009730B200B20B102AB30B102AA3
:1004280083160313851683160317081683120313FE
:100438001F08C33910389F00033083120313B30019
:100448009730B200B20B262AB30B262A8316031361
:100458009F171F129F16831203131F140C130800F3
:1004680002308A000408840A8207003440340034C9
:1004780079340034243400343034003419340034EE
:100488001234003402340034783400340034003438
:100498001034003408340034033400344634003453
:1004A80021340034063400340E340034F401F501EC
:1004B800701C5F2A602A662A7208F4070318F50A76
:1004C8007308F50701300310F20DF30DFF3E031D0D
:1004D800672A01300310F10CF00CFF3E031D6E2A51
:1004E80070087104031D792A7A2A5C2A7508F100BC
:1004F8007408F00008007008F2007207013E8400DA
:100508000A128A1134220A128A11080026342A345F
:02051800283485
:08400000FF3FFF3FFF3FFF3FC0
:04400E00D420FF3F7C
:00000001FF
