:060000000A128A1110280B
:10000800FE00030E83160313D3000A08D4007F08EA
:10001800D5000A128A117F2B0A128A111328831617
:1000280003130A128A11F4270A128A11D9000A1234
:100038008A11F5270A128A11DA000A128A11F6279C
:100048000A128A11DB000A128A11F7270A128A118A
:10005800DC008313A0308400C5300A128A11EC2713
:100068000A128A1183010A128A11E92D83120313D5
:100078003D088039C7003D08C2004207CD00BC1FBB
:100088004628472848284D144D0803194C284D2860
:100098005C284D0A031D512852285A280030BD00FB
:1000A8000030BC000030BB000030BA00BC17642828
:1000B8000030BD000030BC000030BB000030BA008A
:1000C80041088039C2004208C7064108C2004207F9
:1000D800CC00C01F7028712872284C144C080319D2
:1000E8007628772886284C0A031D7B287C288428B4
:1000F8000030C1000030C0000030BF000030BE003A
:10010800C0178E280030C1000030C0000030BF008A
:100118000030BE004C0803199228932898284D08EF
:10012800031D97289828A1280030BD000030BC0086
:100138000030BB000030BA007E2B3A08F0004008BF
:100148000A128A11C5270A128A1171088312031329
:10015800D3007008D2005208C200C301C401C5010F
:100168004508CB004408CA004308C9004208C80033
:100178005308C200C301C401C5014508D1004408A1
:10018800D0004308CF004208CE003B08F0003F08EB
:100198000A128A11C5270A128A11710883120313D9
:1001A800D3007008D2005208C200C301C401C501BF
:1001B8004208C807430803110318013E0319E5283C
:1001C800C907440803110318013E0319EC28CA079C
:1001D800450803110318013E0319F328CB075308F8
:1001E800C200C301C401C5014208CE074308031178
:1001F8000318013E03190129CF0744080311031806
:10020800013E03190829D007450803110318013EC8
:1002180003190F29D1073C08F0003E080A128A1179
:10022800C5270A128A11710883120313D3007008B4
:10023800D2005208C200C301C401C5014208C80760
:10024800430803110318013E03192B29C907440861
:1002580003110318013E03193229CA07450803117F
:100268000318013E03193929CB075308C200C301FB
:10027800C401C5014208CE07430803110318013E13
:1002880003194729CF07440803110318013E03192E
:100298004E29D007450803110318013E03195529B3
:1002A800D1070830C2000310C80DC90DCA0DCB0D07
:1002B800C20B57293B08F0003E080A128A11C527CD
:1002C8000A128A11710883120313D3007008D2002E
:1002D8005208C2005308C300C401C5014208C80738
:1002E800430803110318013E03197B29C907440871
:1002F80003110318013E03198229CA07450803118F
:100308000318013E03198929CB073A08F0003F0872
:100318000A128A11C5270A128A1171088312031357
:10032800D3007008D2005208C2005308C300C401A9
:10033800C5014208C807430803110318013E031901
:10034800A629C907440803110318013E0319AD295A
:10035800CA07450803110318013E0319B429CB073E
:100368000830C2000310C80DC90DCA0DCB0DC20B51
:10037800B6293A08F0003E080A128A11C5270A125F
:100388008A11710883120313D3007008D20052082F
:10039800C2005308C300C401C5014208C807430886
:1003A80003110318013E0319DA29C9074408031188
:1003B8000318013E0319E129CA0745080311031868
:1003C800013E0319E829CB073B08F00040080A1250
:1003D8008A11C5270A128A11710883120313D300E0
:1003E8007008D2005208C2005308C300C401C501F6
:1003F8004208CE07430803110318013E0319052AD2
:10040800CF07440803110318013E03190C2AD0072B
:10041800450803110318013E0319132AD1073C08A4
:10042800F0003F080A128A11C5270A128A117108BA
:1004380083120313D3007008D2005208C200530875
:10044800C300C401C5014208CE07430803110318BD
:10045800013E0319302ACF07440803110318013E4F
:100468000319372AD007450803110318013E031959
:100478003E2AD1073C08F00040080A128A11C52715
:100488000A128A11710883120313D3007008D2006C
:100498005208C2005308C300C401C5010830031044
:1004A800C20DC30DC40DC50DFF3E031D532A4208DE
:1004B800CE07430803110318013E0319642ACF0726
:1004C800440803110318013E03196B2AD007450895
:1004D80003110318013E0319722AD1074808C20004
:1004E8004908C3004A08C4004B08C5001830031067
:1004F800C50CC40CC30CC20CFF3E031D7B2A42086A
:10050800CE07430803110318013E03198C2ACF07AD
:10051800440803110318013E0319932AD00745081C
:1005280003110318013E03199A2AD1070830C200A3
:100538000310C80DC90DCA0DCB0DC20B9C2A4D085E
:100548004C07C200C301C30D4208823ED2004308D3
:100558000318013EFF3ED300CE2A0130C20003102B
:10056800CE0DCF0DD00DD10DC20BB32ACB1FBD2A96
:10057800BE2ABF2A4E140130C2000310C80DC90D8F
:10058800CA0DCB0DC20BC12AFF30D2070318D30AFC
:10059800FF30D307D01FD12AD22AB12ACC01CB1FD2
:1005A800D62AD72AF32AFF304805C200FF3049056A
:1005B800C300FF304A05C4007F304B05C50045081D
:1005C8004404430442040319EA2AEB2AEE2ACC0124
:1005D800CC0AF32A4E1CF12AF22AF32AEB2A4C08F9
:1005E8000319F72AF82A292B0130CE0700300318FF
:1005F8000130CF07003003180130D007003003184E
:100608000130D107511C092B0A2B292B4E08C20097
:100618004F08C3005008C4005108C5000130C60087
:10062800450DC50CC40CC30CC20CC60B142B4508D5
:10063800D1004408D0004308CF004208CE00013062
:10064800D2070318D30A0030D3075308803AFF00B3
:1006580080307F02031D322BFF305202031C352BE2
:10066800362B412B7F3083120313D1008030D0000A
:100678000030CF000030CE00722B831203135308D2
:10068800803AFF0080307F02031D4C2B013052025C
:1006980003184F2B502B5C2B003083120313D1000F
:1006A8000030D0000030CF000030CE00C701722BE0
:1006B800831203135208CD00FF30CE05FF30CF055B
:1006C8007F30D0050030D1054D1C6B2B6C2B6D2B6A
:1006D800D0174D08C2000310420CD1004708C200D1
:1006E8004208D1045108BD005008BC004F08BB00A7
:1006F8004E08BA000800831203138C1E842B852B26
:10070800E42B83160313590C83120313031C881359
:100718000318881783160313D909DA0931308312AD
:1007280003131A06031D992B9A2BA12B013083164C
:100738000313A0000030A100E22B32301A06031D7B
:10074800A62BA72BAE2B023083160313A000003074
:10075800A100E22B33301A06031DB32BB42BBB2B9D
:10076800033083160313A0000030A100E22B3430BD
:100778001A06031DC02BC12BC82B04308316031384
:10078800A0000030A100E22B35301A06031DCD2B46
:10079800CE2BD52B053083160313A0000030A10003
:1007A800E22B36301A06031DDA2BDB2BE22B063040
:1007B80083160313A0000030A100E22B83128C12D1
:1007C8000C1FE72BE82B162D831603133B08031D7C
:1007D800EE2BEF2B2B2C831203131E088316031307
:1007E800D1000310510C7C3E83120313950083162D
:1007F8000313D601831203131E080319042C052CB6
:10080800092C83160313D601D60A83160313560C34
:1008180083120313031C97120318971683160313E6
:100828001E08D10007300310D10CFF3E031D172C02
:100838005108D200D20E831203131708831603132C
:100848005206EF395206831203139700142D3B0307
:10085800031D2F2C302C6C2C831203131E088316B7
:100868000313D1000310510C7C3E831203139B0029
:1008780083160313D701831203131E080319452C8B
:10088800462C4A2C83160313D701D70A8316031361
:10089800570C83120313031C9D1203189D1683160D
:1008A80003131E08D10007300310D10CFF3E031DAF
:1008B800582C5108D200D20E831203131D08831638
:1008C80003135206EF395206831203139D00142DA9
:1008D80002303B06031D712C722C962C83120313D5
:1008E8001E0883160313D100D2015108C70052080D
:1008F800C8000030C900CA00FF30CB000030CC006F
:100908000130CD000030CE000B30CF000030D000D9
:100918000A128A1566220A128A11831603134708D7
:10092800C400142D03303B06031D9B2C9C2CC02CAB
:10093800831203131E0883160313D100D201510832
:10094800C7005208C8000030C900CA00FF30CB00F9
:100958000030CC000130CD000030CE000B30CF008D
:100968000030D0000A128A1566220A128A118316EC
:1009780003134708C300142D04303B06031DC52C80
:10098800C62CEA2C831203131E0883160313D10006
:10099800D2015108C7005208C8000030C900CA0077
:1009A800FF30CB000030CC000130CD000030CE004D
:1009B8000B30CF000030D0000A128A1566220A12C6
:1009C8008A11831603134708C200142D05303B060D
:1009D800031DEF2CF02C142D831203131E0883160D
:1009E8000313D100D2015108C7005208C8000030D3
:1009F800C900CA00FF30CB000030CC000130CD0068
:100A08000030CE000B30CF000030D0000A128A151B
:100A180066220A128A11831603134708C100142D8F
:100A280083120C130B1D192D1A2D8D2D01308316D1
:100A38000313D1005108C007440840020318252DAC
:100A4800262D2A2D831203130814352DB4304006A1
:100A5800031D2F2D302D322DC001352D8312031388
:100A68000810013083160313D1005108BF0743084B
:100A78003F020318402D412D452D8312031388147E
:100A8800502DB4303F06031D4A2D4B2D4D2DBF016F
:100A9800502D831203138810013083160313D100DD
:100AA8005108BE0742083E0203185B2D5C2D602DDD
:100AB8008312031308156B2DB4303E06031D652DF4
:100AC800662D682DBE016B2D8312031308110130AA
:100AD80083160313D1005108BD0741083D020318CE
:100AE800762D772D7B2D831203138815862DB43030
:100AF8003D06031D802D812D832DBD01862D83127A
:100B080003138811831603135C08831203138100EF
:100B18000B110B1C902D912DDE2D0618942D952D63
:100B28009F2D1F14831603138C12BA018312061CFF
:100B38009E2D9F2D9A2D8618A22DA32DAF2D83169D
:100B48000313BA01BA0A8C12831203131F10861CEE
:100B5800AE2DAF2DAB2D0619B22DB32DBF2D023002
:100B680083160313BA008C16831203131F10061D75
:100B7800BE2DBF2DBB2D8619C22DC32DCF2D033001
:100B880083160313BA008C16831203131F10861DD5
:100B9800CE2DCF2DCB2D061AD22DD32DDD2D043001
:100BA80083160313BA008C128312061EDC2DDD2D6A
:100BB800D82D0B10831603135508FF0054088A001C
:100BC800530E8300FE0E7E0E09000A128A15B72105
:100BD8000A128A11831603133A08031DF42DF52D02
:100BE800972E831203130816881208139F18FD2DD9
:100BF800FE2DEE2D1F0C831603179200120C0F39D1
:100C0800003A031D082E092E142E83160313BB0168
:100C1800BB0A831203131F08C33904389F00892EA7
:100C2800831203131F0C831603179200120C0F393B
:100C3800013A031D202E212E2C2E02308316031379
:100C4800BB00831203131F08C33908389F00892E7D
:100C5800831203131F0C831603179200120C0F390B
:100C6800023A031D382E392E442E033083160313FF
:100C7800BB00831203131F08C3390C389F00892E49
:100C8800831203131F0C831603179200120C0F39DB
:100C9800033A031D502E512E5C2E04308316031385
:100CA800BB00831203131F08C33910389F00892E15
:100CB800831203131F0C831603179200120C0F39AB
:100CC800043A031D682E692E742E0530831603130B
:100CD800BB00831203131F08C33914389F00892EE1
:100CE800831203131F0C831603179200120C0F397B
:100CF800053A031D802E812E892E83160313BB010E
:100D0800C330831203139F05892E8230831603177D
:100D18009300DD309200920B8F2E930B8F2E83124F
:100D280003139F14EE2D3A03031D9B2E9C2EDE2EDB
:100D38008312031308128816081301300A128A1541
:100D4800ED200A128A1183120313950002300A1249
:100D58008A15ED200A128A11831203139B000330AF
:100D68000A128A15ED200A128A1183160313C40089
:100D780004300A128A15ED200A128A118316031309
:100D8800C30005300A128A15ED200A128A1183164B
:100D98000313C20006300A128A15ED200A128A11BE
:100DA80083160313C1003A030319DB2EDC2ED72E5A
:100DB800EE2DEE2D02303A06031DE32EE42E2A2FE7
:100DC80083120313081688160813831603132003C7
:100DD8002104031DF02EF12EF62EFA308312031390
:100DE8009500EE2D023020062104031DFC2EFD2E59
:100DF800022F8230831203139B00EE2D033020064E
:100E08002104031D082F092F0C2F0730C400EE2DD5
:100E1800043020062104031D122F132F162F07302C
:100E2800C300EE2D053020062104031D1C2F1D2FA5
:100E3800202F0430C200EE2D063020062104031DA9
:100E4800262F272FDD2E0A30C100EE2D03303A065B
:100E5800031D2F2F302F762F8312031308128812A9
:100E680008178316031320032104031D3C2F3D2F6D
:100E7800422FC830831203139500EE2D023020064E
:100E88002104031D482F492F4E2FB9308312031315
:100E98009B00EE2D033020062104031D542F552FEF
:100EA800582F0930C400EE2D043020062104031DFC
:100EB8005E2F5F2F622FC301C30AEE2D0530200677
:100EC8002104031D682F692F6C2F0830C200EE2DF6
:100ED800063020062104031D722F732FDD2E0830E3
:100EE800C100EE2D04303A06031D7B2F7C2FDD2E2A
:100EF8008312031308168812081783160313D801E0
:100F0800D80A8312031315080A128A1504210A1233
:100F18008A11023083160313D800831203131B08A7
:100F28000A128A1504210A128A1103308316031340
:100F3800D80044080A128A1504210A128A110430BA
:100F480083160313D80043080A128A1504210A12CB
:100F58008A11053083160313D80042080A128A152D
:100F680004210A128A11063083160313D800410897
:100F78000A128A1504210A128A11EE2D0A128A1100
:100F88001028F800F401F5017008F200F301720866
:100F9800F6007308F700781CD22FD32FD92F7608C4
:100FA800F4070318F50A7708F50701300310F60D62
:100FB800F70DFF3E031DDA2F0310F80C7808031D08
:100FC800E62FE72FCF2F7508F1007408F00008000E
:100FD80064008001840A0406031900340406ED2F16
:080FE800013400340134FA3435
:1011DA0083160313D800831603170C18F528F6286C
:1011EA00F028831603135808831203178D008316F9
:1011FA0003178C130C14831203170C0808008316A8
:10120A00031790008C180A290B2907298316031340
:10121A005808831203178D008316031710088312C8
:10122A0003178C00831603170C158C138B13553078
:10123A008D00AA308D008C140C110B108B178C1892
:10124A0027292829242908000310831203136A0D69
:10125A006B0D83160313C6004608031D352936296C
:10126A004129003083120313EB000030EA000030FA
:10127A00E9000030E800B629831203136808EC007D
:10128A006908ED006A08EE006B08EF001F300310D2
:10129A00EF0CEE0CED0CEC0CFF3E031D4C296C0818
:1012AA0083160313C50083120313EA17FF30E805F8
:1012BA00FF30E905FF30EA050030EB05963083166A
:1012CA000313C602C61F6A296B2989294608803A70
:1012DA00973E0318712972297329362901300310A0
:1012EA0083120313EB0CEA0CE90CE80CFF3E031D16
:1012FA0074290130EC006C0883160313C607031D1A
:10130A00872988297329A42920304602031C8E299B
:10131A008F299F293629013083120313EC00031009
:10132A00E80DE90DEA0DEB0DEC0B9429013083165B
:10133A000313C6024608031DA329A42990294508B8
:10134A000319A829A929B62983120313E809E90967
:10135A00EA09EB09E80A0319E90A0319EA0A03196F
:10136A00EB0A08003F3083160317880089012F30E3
:10137A008316031385001F30860087018801013018
:10138A008900831203138501860187018801890177
:10139A00831603138113151495141515951515162F
:1013AA0095161517951770308F040F1483120313AF
:1013BA001F083F3980389F00831603131F129F129C
:1013CA009F13831203131F14C3309F051F08C339C9
:1013DA0004389F001F08C33908389F001F08C33903
:1013EA000C389F001F141A30831603179100F73028
:1013FA009000900BFE29910BFE29032A83160313F2
:10140A00811281110115811001140B11831203132A
:10141A0097019D013F3097051708F0390C3897005E
:10142A001D08F0390C389D003E3095001708CF3959
:10143A00203897003E309B001D129D128C100330FD
:10144A00920412158C1C2A2A2B2A272A8C108316FE
:10145A00031307118710871118121811831603171F
:10146A0087110C308316031399009A018312031310
:10147A009817181318168316031398168B170B1739
:10148A008B150B1016149614161596151616961615
:10149A00161796170C17831203130C138B160B11BE
:1014AA008C12831603138C165C08831203138100B3
:1014BA008B168B1783160313C001BF01BE01BD0132
:1014CA000800831603134D08F0004E08F10000309F
:1014DA00F11BFF30F200F30001300A128A151D23B6
:1014EA000A128A15730883120313DB007208DA00E2
:1014FA007108D9007008D800831603134D084F02EB
:10150A00F0004E08031C4E0A5002F100F201F11BD2
:10151A00F2037208F30001300A128A151D230A1217
:10152A008A15730883120313A7007208A6007108AC
:10153A00A5007008A4008316031349084B02F000A3
:10154A004A08031C4A0A4C02F100F201F11BF20399
:10155A007208F30001300A128A151D230A128A152D
:10156A00730883120313A3007208A2007108A10072
:10157A007008A0000A128A15D5230A128A15831246
:10158A0003132308C1002208C0002108BF00200855
:10159A00BE008316031349084702F0004A08031CD9
:1015AA004A0A4802F100F201F11BF2037208F30041
:1015BA0001300A128A151D230A128A15730883122A
:1015CA000313BD007208BC007108BB007008BA00A2
:1015DA000A128A113A200A128A15831203133D0845
:1015EA00D7003C08D6003B08D5003A08D4000A12B6
:1015FA008A15A8250A128A15831203135708EB00C5
:10160A005608EA005508E9005408E8000A128A1543
:10161A0029210A128A1583120313690883160313F0
:10162A00C80083120313680883160313C70008004F
:10163A00F80078080319222B232B372BF31F262BAC
:10164A00272B372B7009FA007109FB007209FC007D
:10165A007309FD00FA0A0319FB0A0319FC0A0319A4
:10166A00FD0A3F2B7308FD007208FC007108FB009D
:10167A007008FA007308720471047004031D462B83
:10168A00472B502B0030F3000030F2000030F100FD
:10169A000030F000D42B9630F900602B0130F400B2
:1016AA007408F90701300310FD0CFC0CFB0CFA0C52
:1016BA00FF3E031D582BFE307D05031D652B662B4F
:1016CA00532B822B0130F4007408F9070130FA0712
:1016DA00003003180130FB07003003180130FC0703
:1016EA00003003180130FD0701300310FD0CFC0C1B
:1016FA00FB0CFA0CFF3E031D7A2BFF307D05031D00
:10170A00872B882B672B942B0130F9020130F400C8
:10171A000310FA0DFB0DFC0DFD0DF40B8D2BFC1BBC
:10172A00972B982B9E2B0230790203189D2B9E2B08
:10173A00892B7918A12BA22BAA2BFF30FA05FF308F
:10174A00FB057F30FC05FF30FD050310F90C790815
:10175A00F400F501F601F70118300310F40DF50D48
:10176A00F60DF70DFF3E031DB22B7408FA04750837
:10177A00FB047608FC047708FD0478080319C62BD5
:10178A00C72BCC2BF31FCA2BCB2BCC2BFD177D08D9
:10179A00F3007C08F2007B08F1007A08F0000800E8
:1017AA008312031327088039B1002708A8002807E5
:1017BA00B800A61FE12BE22BE32B381438080319D3
:1017CA00E72BE82BF82B380A031DEC2BED2BF52B16
:1017DA000030A7000030A6000030A5000030A400A9
:1017EA00A617A701002C0030A7000030A600003081
:1017FA00A5000030A40023088039A8002808B106F3
:10180A002308A8002807B900A21F0C2C0D2C0E2CA7
:10181A00391439080319122C132C232C390A031DE5
:10182A00172C182C202C0030A3000030A200003006
:10183A00A1000030A000A217A3012B2C0030A300A6
:10184A000030A2000030A1000030A00023082204CA
:10185A0021042004031D322C332C4C2C0030A70009
:10186A000030A6000030A5000030A4008030A60495
:10187A007F30A7043108A8002808A7042708A30076
:10188A002608A2002508A1002408A000A72D3808D0
:10189A00031D502C512C5A2C0030A3000030A200FA
:1018AA000030A1000030A000A72D3808A800A90127
:1018BA002908AB0039082802AA00031CAB032A082E
:1018CA007F3EB2002B080318013E003EB3002708F2
:1018DA00B0002608AF002508AE002408AD0000308D
:1018EA00A7000030A6000030A5000030A400003098
:1018FA00B7000030B6000030B5000030B400B901BE
:10190A00D02C390803198A2C8B2CAB2C0130A80057
:10191A000310AD0DAE0DAF0DB00DA80B8D2C01301F
:10192A00A8000310A40DA50DA60DA70DA80B962CB3
:10193A00B71FA02CA12CA22C24140130A80003103C
:10194A00B40DB50DB60DB70DA80BA42C23083002A3
:10195A00031DB92C22082F02031DB92C21082E02BF
:10196A00031DB92C20082D02031CBC2CBD2CCC2C29
:10197A0037172008AD022108031C210FAE022208E6
:10198A00031C220FAF022308031C230FB0020130ED
:10199A00A8002808B9071A303902031CD52CD62CFE
:1019AA00862C30082F042E042D040319DD2CDE2C7E
:1019BA00FD2C3414FD2C0130A8000310A40DA50D34
:1019CA00A60DA70DA80BE22CB71FEC2CED2CEE2CC4
:1019DA0024140130A8000310B40DB50DB60DB70DCF
:1019EA00A80BF02CFF30B2070318B30AFF30B30775
:1019FA00A61F002D012DE02CB901B71F052D062DBC
:101A0A00222DFF303405A800FF303505A900FF302C
:101A1A003605AA007F303705AB002B082A042904B3
:101A2A0028040319192D1A2D1D2DB901B90A222DC1
:101A3A00241C202D212D222D1A2D39080319262D7B
:101A4A00272D582D0130A407003003180130A507AF
:101A5A00003003180130A607003003180130A70729
:101A6A00271C382D392D582D2408A8002508A9002F
:101A7A002608AA002708AB000130AC002B0DAB0CDE
:101A8A00AA0CA90CA80CAC0B432D2B08A7002A08FA
:101A9A00A6002908A5002808A4000130B2070318E7
:101AAA00B30A0030B3073308803AFF0080307F0260
:101ABA00031D612DFF303202031C642D652D732D29
:101ACA00FF3083120313B2000030B3000030A700C6
:101ADA000030A6000030A5000030A40083120313D2
:101AEA003308803AFF0080307F02031D7E2D0130CB
:101AFA0032020318812D822D8F2D83120313B20116
:101B0A00B3010030A7000030A6000030A500003065
:101B1A00A400B101831203133208B800381C962DB1
:101B2A00972D992DA6179D2D7F30A8002808A60568
:101B3A003808A8000310280CA7003108A8002808B4
:101B4A00A704432C08008312031357088039E400C2
:101B5A005708DC005C07E600D61FB42DB52DB62D5C
:101B6A00661466080319BA2DBB2DCB2D660A031D10
:101B7A00BF2DC02DC82D0030D7000030D600003050
:101B8A00D5000030D400D617D701D32D0030D700A6
:101B9A000030D6000030D5000030D4005B08803910
:101BAA00E500650864060319DB2DDC2DDD2D6417BD
:101BBA005B08DC005C07E500DA1FE42DE52DE62D65
:101BCA00651465080319EA2DEB2DFB2D650A031D23
:101BDA00EF2DF02DF82D0030DB000030DA00003058
:101BEA00D9000030D800DA17DB01032E0030DB0001
:101BFA000030DA000030D9000030D80066086502EB
:101C0A000318082E092E2F2E641F0C2E0D2E112EAE
:101C1A008030DC005C08E4066608E7006508E60038
:101C2A006708E5005408E7005808D4006708D80098
:101C3A005508E7005908D5006708D9005608E70093
:101C4A005A08D6006708DA005708E7005B08D70089
:101C5A006708DB00E7016508DC00DD015D08DF00DD
:101C6A0066085C02DE00031CDF035F08803AFF009F
:101C7A0080307F02031D432E1A305E02031C462E5B
:101C8A00472E7E2E83120313570856045504540414
:101C9A00031D502E522E0130532E0030E700003023
:101CAA00D7000030D6000030D5000030D4006508D7
:101CBA00E600862E671C622E632E6A2E6708DC00F9
:101CCA0003105C0C0138E7006C2E0310E70C541C5F
:101CDA006F2E702E712EE7170130DC00570DD70CCE
:101CEA00D60CD50CD40CDC0B732E0130DC005C084E
:101CFA00E6078312031365086602031C852E862EE7
:101D0A005F2E641B892E8A2ED32E6608031D8E2E03
:101D1A008F2E982E0030D7000030D6000030D50024
:101D2A000030D400FF2F5808D407590803110318AC
:101D3A00013E0319A12ED5075A0803110318013EC3
:101D4A000319A82ED6075B0803110318013E0319CD
:101D5A00AF2ED707571CB22EB32E872F671CB62E6D
:101D6A00B72EBE2E6708DC0003105C0C0138E700B2
:101D7A00C02E0310E70C541CC32EC42EC52EE71721
:101D8A000130DC00570DD70CD60CD50CD40CDC0B6B
:101D9A00C72E0130DC005C08E607872F5708803A17
:101DAA00FF005B08803A7F02031DE52E5A0856029F
:101DBA00031DE52E59085502031DE52E5808540245
:101DCA000318E82EE92E412FFF30DC00FF30DD003A
:101DDA00FF30DE00FF30DF005808E0005908E1005C
:101DEA005A08E2005B08E3005408E0025508031CA5
:101DFA00550F002F012FE1025608031C560F062F1C
:101E0A00072FE2025708031C570F0C2F0D2FE3026E
:101E1A006008DC0761080318610F142F152FDD070E
:101E2A0062080318620F1A2F1B2FDE0763080318B4
:101E3A00630ADF075F08D7005E08D6005D08D50091
:101E4A005C08D4008030DC005C08E406E709E70A95
:101E5A006708031D312F322F4F2F0130D40700306E
:101E6A0003180130D507003003180130D6070030B7
:101E7A0003180130D7074F2F5808D4025908031CFA
:101E8A00590FD5025A08031C5A0FD6025B08031CC5
:101E9A005B0FD7025708560455045404031D562FE6
:101EAA00572F832F6708031D5B2F5C2F832F00306A
:101EBA00D7000030D6000030D5000030D400FF2F04
:101ECA000130DC000310D40DD50DD60DD70DDC0B77
:101EDA00672FE71F712F722F732F5414671C762FE9
:101EEA00772F7A2F0314E70D7C2F0310E70D66086E
:101EFA000319802F812F832F0130E602D61F862FE8
:101F0A00872F652FE501E71F8B2F8C2F9A2F6708E4
:101F1A007F390319912F922F952FE501E50A9A2F00
:101F2A00541C982F992F9A2F922F650803199E2FC8
:101F3A009F2FD32F0130D407003003180130D50763
:101F4A00003003180130D607003003180130D707D4
:101F5A00571CB02FB12FD32F5408DC005508DD00D1
:101F6A005608DE005708DF000130E0005F0DDF0C85
:101F7A00DE0CDD0CDC0CE00BBB2F5F08D7005E0823
:101F8A00D6005D08D5005C08D400660A0319CE2F76
:101F9A00CF2FD32F0130DC005C08E607660A03194D
:101FAA00D72FD82FDD2F6608031DDC2FDD2FEB2F4F
:101FBA000030D7000030D6000030D5000030D40001
:101FCA006608031DE92FEA2FEB2FE401661CEE2FAA
:101FDA00EF2FF12FD617F52F7F30DC005C08D605DE
:101FEA006608DC0003105C0CD700E41FFD2FFE2FEF
:061FFA00FF2FD7170800BD
:08400000FF3FFF3FFF3FFF3FC0
:04400E00D420FF3F7C
:00000001FF
