:060000000A128A11032B15
:10000800A100030EA0000B1810200B199F20200E32
:100018008300A10E210E0900AE0137201520922081
:100028005620061D1A20AB010B1008009A20061D49
:100038002A1828202B180800AA182D202B18080089
:100048002A1932202B1808002A10AA142A11AB0AE0
:1000580008002A10AA102A15AB0A08002A14AA10A8
:100068002A11AB0A0800061E3E20861D4A200B10E6
:10007800031108009A20061E2D08AE00FF30AE02BC
:10008800031D472008003330AD0708009A20861D5D
:100098002D08AE003330AE02031D53200800333064
:1000A800AD02080008118811061F5E20861E642014
:1000B8000311080008159A20061F3B1C6A287E2891
:1000C80088159A20861E3B1C742888283208AE00A2
:1000D800FF30AE02031D712008000130B20708008E
:1000E8003208AE000030AE02031D7B20080001304C
:1000F800B20208003408AE00FF30AE02031D8520AE
:1001080008000130B40708003408AE000030AE0221
:10011800031D8F2008000130B4020800861F9520B7
:1001280008009A20861F0130BB0608009630C900D7
:10013800C90B9C280800A6202A18732BAA187C2B08
:100148002A198A2B003089004818AE28C818B52803
:100158004819BC284810440887000914C8144811D5
:100168000800C81045088700891448154810080079
:0E01780048114608870009154814C8100800F1
:100200008A010A148F05820740347934243430344B
:10021000193412340234783400341034083403347E
:100220004634213406340E348A010A14FF0582074D
:10023000743477347A347D3480348334863489342A
:100240008D3490349334963499349C349F34A23452
:10025000A434A734AA34AD34B034B234B534B7348E
:10026000BA34BC34BF34C134C334C634C834CA34DD
:10027000CC34CE34D034D234D434D534D734D93449
:10028000DA34DB34DD34DE34DF34E034E134E234DC
:10029000E334E434E534E534E634E634E634E73494
:1002A000E734E734E734E734E734E634E634E63479
:1002B000E534E534E434E334E234E134E034DF348B
:1002C000DE34DD34DB34DA34D934D734D534D434C5
:1002D000D234D034CE34CC34CA34C834C634C33427
:1002E000C134BF34BC34BA34B734B534B234B034AA
:1002F000AD34AA34A734A434A2349F349C34993446
:100300009634933490348D348934863483348034F5
:100310007D347A347734733470346D346A346734AE
:10032000643461345E345A345734543451344E3466
:100330004B3448344534433440343D343A34373414
:100340003534323430342D342B34283426342434AC
:1003500021341F341D341B3419341734153413342D
:10036000123410340E340D340C340A340934083489
:1003700007340634053404340334023402340134BF
:1003800001340134003400340034003400340034CB
:1003900001340134013402340234033404340534AA
:1003A00006340734083409340A340C340D340E345E
:1003B0001034123413341534173419341B341D34EB
:1003C0001F3421342434263428342B342D34303453
:1003D0003234353437343A343D34403443344534A0
:1003E00048344B344E345134543457345A345E34D8
:1003F0006134643467346A346D34703474348A011F
:100400000A14FF0582070034343409340734793480
:100410000434DF34C334AE349C348E3442343C3440
:1004200030342834D1349734643436340D34E834DD
:10043000C634A7348B3471345934593443342E3490
:100440001B340934F834E834D934CC34BE34B234F3
:10045000A6349B34913487347D3474346B346334E4
:100460005B3454344C3446343F343F3439343234C2
:100470002C34273421341C341734123412340D3404
:100480000D34093404340034FC34F834F434F034DA
:10049000ED34E934E634E234DF34DC34D934D934B1
:1004A000D634D334D034CE34CB34C834C634C33449
:1004B000C134C134BF34BC34BA34B834B834B634BF
:1004C000B434B234B034CE34CB34C834C634C63489
:1004D000C334C134BF34BC34BA34B834B634B434A1
:1004E000B434B234B034AE34AC34AA34A834A63404
:1004F000A434A434A334A1349F340E340C348B348C
:100500008934893408340A3485348334023481349C
:100510008F340E348D340C340A340A348934083460
:100520008734063404348334023481340034803414
:10053000803400348034003480340034803480349B
:10054000003480340034803480340034803400340B
:10055000803480340034003480340034803480347B
:1005600000348034003400348034803400348034EB
:1005700080340034803480340034003480340034DB
:1005800000348034003400348034803480340034CB
:10059000003480340034003480348034573457348D
:1005A000573457345234523452342934293429348C
:1005B0002934203420342034E734E734E734E63477
:1005C000E634E634B534B534B534B53484348434E3
:1005D00084348434733473347234723472345134E6
:1005E0005134513451340034003400340034003478
:1005F000FF34FF34FF34FF34DE34DE34DE34DE34E7
:10060000DE34BD34BD342A14AA102A113B102B103D
:10061000FF30AD00FF30B200FF30B4001C23402398
:10062000482355235C236D2303138312BE23B42375
:10063000AA23C8236423162B031783168801890174
:100640000313831685018601870188018901061439
:100650008614061586150616861606178617811344
:100660001514951415159515151695161517951736
:10067000031383128501860187018801890108001F
:10068000031383128B178B160B168B150B10080098
:100690000313831616149614161596151616961629
:1006A000161796178B158B170800031383160F1454
:1006B0000F178F160F16080003138316811281116E
:1006C00001118114011008003B1C672B6A2B0814D0
:1006D00088100800081088140800031383120B11F7
:1006E000E63081000800081688122D0885009B233B
:1006F000003085009B230800081288162D08A200F0
:10070000850A9523A20B802B2D08A2008503952333
:10071000A20B080008168816A301E630A3002308E0
:1007200014218500A30B8F2B0800031383120B11D8
:100730003408810008003B1C9E2BA42B031383125A
:100740000B11320881000800031383120B113408C7
:1007500081000800C2010130C3020318C20A031855
:10076000AB2B0130C3070800C1010A30C3020318D4
:10077000C10A0318B52B0A30C3070800C001643052
:10078000C3020318C00A0318BF2B6430C307080054
:1007900042080021C40041080021C5004008002192
:1007A000C60008003B1CD52BD92B3208FF21C30003
:0A07B00008003408FF21C300080010
:04400E00D420FF3F7C
:00000001FF
