:060000000A128A11E0293A
:10000800A100030EA00011200B1817200B1949207E
:10001800200E8300A10E210E09002A18472AAA18CB
:10002800542A2A196A2A4420AF0123201E2033208B
:100038002A204C20061DF122AB010B100800061ED9
:100048000D23861D1A230B100311080008118811AF
:10005800061F2723861E2E2303110B100800861F58
:10006800362008004420861F0130BE060B103E1CB7
:100078003E28412808148810080008108814080031
:10008800FA30CC00CC0B46280800DF22D222B52259
:10009800081788170B10861C5D2B061C692B080097
:100200008A010A148F058207BF348634DB34CF3469
:10021000E634ED34FD348734FF34EF34F734FC3406
:10022000B934DE34F934F1348A010A14FF05820747
:100230007334833487348A348E34923495349934C9
:100240009C34A034A334A734AA34AD34B134B434CC
:10025000B734BA34BD34C034C334C634C934CC34F2
:10026000CE34D134D334D634D834DA34DD34DF3438
:10027000E134E334E434E634E834E934EA34EC34A9
:10028000ED34EE34EF34F034F034F134F134F23450
:10029000F234F234F234F234F234F234F134F13430
:1002A000F034EF34EE34ED34EC34EB34EA34E8344B
:1002B000E734E534E334E234E034DE34DC34D9349A
:1002C000D734D534D234D034CD34CA34C834C5341C
:1002D000C234BF34BC34B934B534B234AF34AC34C6
:1002E000A834A534A1349E349A349734933490348E
:1002F0008C348934853481347E347A347634733462
:100300006F346C346834653461345E345A34573435
:10031000533450344D344A344634433440343D34FD
:100320003A343734353432342F342D342A342834A7
:100330002634233421341F341D341C341A34183429
:1003400017341534143413341234113410340F3478
:100350000E340E340D340D340D340D340D340D3493
:100360000D340E340E340F340F3410341134123473
:10037000133415341634173419341B341C341E341A
:10038000203422342534273429342C342E3431348B
:100390003334363439343C343F34423445344834D1
:1003A0004B344E345234553458345C345F346334F7
:1003B00066346A346D347134753478347C34803406
:1003C0002A14AA102A113E102B10FF30AD00003065
:1003D000AE000130B5000530B700F9211D222522FD
:1003E0003222392241220814081703138312000015
:1003F000F7290317831688018901031383168501E2
:100400008601870188018901061486140615861560
:1004100006168616061786178113151495141515DA
:100420009515151695161517951703138312850143
:1004300086018701880189010800031383128B1745
:100440008B160B168B150B1008000313831616144E
:1004500096141615961516169616161796178B15CA
:100460008B170800031383160F140F178F160F1224
:1004700008000313831681128111011181140110E8
:100480000800031383120B11E630810008000816E0
:1004900088122D0885000730AF007B22AF0B4D2A54
:1004A0002E0885007B220800081288162D08A2005D
:1004B0002E08A2022E0885007B22850AA20B5C2A48
:1004C0002D08A2002E08A2022D087B228503A20B74
:1004D000652A080008168816A301C730A300230860
:1004E00014218500A30B6F2A0800031383120B113C
:1004F0003708810008003E187E2A832A3508A400A8
:10050000A40B802A08003708A400A40B852A080041
:100510003E1C8B2A912A031383120B11350881008C
:100520000800031383120B11370881000800C5016E
:100530000130C6020318C50A0318982A0130C607FD
:100540000800C4010A30C6020318C40A0318A22A0C
:100550000A30C6070800C3016430C6020318C30A84
:100560000318AC2A6430C60708000F3089004B1806
:10057000BD2ACB18C42A4B19CB2A4B104708870039
:100580000910CB144B110800CB10480887008910C4
:100590004B154B1008004B114908870009114B14EB
:1005A000CB100800AB22A122972245080021C700EA
:1005B00044080021C80043080021C90008003E1C6F
:1005C000E22AEE2AB1010930B0003508B100350841
:1005D000B107B00BE72A3108C60008003708C6008B
:1005E0000800061D2A18FE222B180800AA1803234B
:1005F0002B1808002A1908232B1808002A10AA14FF
:100600002A11AB0A08002A10AA102A15AB0A080002
:100610002A14AA102A11AB0A080088170813061E0C
:100620002D08AF00FF30AF02031D17230800333041
:10063000AD07080088170813861D2D08AF0033305A
:10064000AF02031D242308003330AD020800081751
:1006500088130815061F3E1C352B492B08178813D5
:100660008815861E3E1C3F2B532B3508AF00633088
:10067000AF02031D3C2308000130B5070800350810
:10068000AF000030AF02031D462308000130B50261
:1006900008003708AF006430AF02031D5023080084
:1006A0000530B70708003708AF006430AF02031DFC
:1006B0005A2308000530B70208002D08AF00FF30AC
:1006C000AF02031D642308003330AD073330AE079B
:1006D00008002E08AF000030AF02031D7023080091
:0A06E0003330AD023330AE020800E3
:04400E00D420FF3F7C
:00000001FF
