:060000000A128A1110280B
:10000800FE00030E83120313EB000A08EC007F08BE
:10001800ED000A128A15362A0A128A111328831645
:1000280003170A128A11FB270A128A11D3000A122F
:100038008A11FC270A128A11D40083179030840091
:10004800C8300A128A1511200A128A118312031362
:10005800EE0183010A128A158028831603133108DA
:100068008039BB003108B6003607C100B01F3D28F3
:100078003E283F284114410803194328442853289F
:10008800410A031D4828492851280030B100003092
:10009800B0000030AF000030AE00B0175B28003071
:1000A800B1000030B0000030AF000030AE003508BD
:1000B8008039B6003608BB063508B6003607C000DA
:1000C800B41F6728682869284014400803196D2858
:1000D8006E287D28400A031D722873287B2800306B
:1000E800B5000030B4000030B3000030B200B417DF
:1000F80085280030B5000030B4000030B30000306F
:10010800B2004008031989288A288F284108031D4E
:100118008E288F2898280030B1000030B0000030B9
:10012800AF000030AE00752B2E08A00034080A1668
:100138008A11D7270A128A11831603132108C700C8
:100148002008C6004608B600B701B801B901390849
:10015800BF003808BE003708BD003608BC00470895
:10016800B600B701B801B9013908C5003808C4009C
:100178003708C3003608C2002F08A00033080A1643
:100188008A11D7270A128A11831603132108C70078
:100198002008C6004608B600B701B801B9013608FC
:1001A800BC07370803110318013E0319DC28BD07F3
:1001B800380803110318013E0319E328BE0739085C
:1001C80003110318013E0319EA28BF074708B600C0
:1001D800B701B801B9013608C20737080311031877
:1001E800013E0319F828C307380803110318013E14
:1001F8000319FF28C407390803110318013E03191E
:100208000629C5073008A00032080A168A11D72720
:100218000A128A11831603132108C7002008C60092
:100228004608B600B701B801B9013608BC07370857
:1002380003110318013E03192229BD0738080311C9
:100248000318013E03192929BE07390803110318A9
:10025800013E03193029BF074708B600B701B801A6
:10026800B9013608C207370803110318013E0319FC
:100278003E29C307380803110318013E031945290D
:10028800C407390803110318013E03194C29C5078F
:100298000830B6000310BC0DBD0DBE0DBF0DB60B6A
:1002A8004E292F08A00032080A168A11D7270A12E9
:1002B8008A11831603132108C7002008C6004608C0
:1002C800B6004708B700B801B9013608BC073708B7
:1002D80003110318013E03197229BD0738080311D9
:1002E8000318013E03197929BE07390803110318B9
:1002F800013E03198029BF072E08A00033080A16FB
:100308008A11D7270A128A11831603132108C700F6
:100318002008C6004608B6004708B700B801B9016A
:100328003608BC07370803110318013E03199D2935
:10033800BD07380803110318013E0319A429BE0795
:10034800390803110318013E0319AB29BF07083008
:10035800B6000310BC0DBD0DBE0DBF0DB60BAD290B
:100368002E08A00032080A168A11D7270A128A1105
:10037800831603132108C7002008C6004608B600E4
:100388004708B700B801B9013608BC073708031198
:100398000318013E0319D129BD07380803110318B2
:1003A800013E0319D829BE07390803110318013E75
:1003B8000319DF29BF072F08A00034080A168A117D
:1003C800D7270A128A11831603132108C7002008A9
:1003D800C6004608B6004708B700B801B901360894
:1003E800C207370803110318013E0319FC29C30784
:1003F800380803110318013E0319032AC4073908F2
:1004080003110318013E03190A2AC5073008A00082
:1004180033080A168A11D7270A128A11831603137A
:100428002108C7002008C6004608B6004708B700DC
:10043800B801B9013608C207370803110318013E8D
:100448000319272AC307380803110318013E0319A3
:100458002E2AC407390803110318013E0319352A47
:10046800C5073008A00034080A168A11D7270A12CF
:100478008A11831603132108C7002008C6004608FE
:10048800B6004708B700B801B90108300310B60D27
:10049800B70DB80DB90DFF3E031D4A2A3608C2072D
:1004A800370803110318013E03195B2AC3073808EC
:1004B80003110318013E0319622AC40739080311FE
:1004C8000318013E0319692AC5073C08B6003D0810
:1004D800B7003E08B8003F08B90018300310B90C3F
:1004E800B80CB70CB60CFF3E031D722A3608C207BB
:1004F800370803110318013E0319832AC307380874
:1005080003110318013E03198A2AC4073908031185
:100518000318013E0319912AC5070830B6000310D5
:10052800BC0DBD0DBE0DBF0DB60B932A410840078B
:10053800B600B701B70D3608823EC6003708031863
:10054800013EFF3EC700C52A0130B6000310C20DA8
:10055800C30DC40DC50DB60BAA2ABF1FB42AB52AF0
:10056800B62A42140130B6000310BC0DBD0DBE0DF5
:10057800BF0DB60BB82AFF30C6070318C70AFF30ED
:10058800C707C41FC82AC92AA82AC001BF1FCD2A65
:10059800CE2AEA2AFF303C05B600FF303D05B700F9
:1005A800FF303E05B8007F303F05B90039083804F0
:1005B800370436040319E12AE22AE52AC001C00AF1
:1005C800EA2A421CE82AE92AEA2AE22A4008031908
:1005D800EE2AEF2A202B0130C20700300318013021
:1005E800C307003003180130C40700300318013076
:1005F800C507451C002B012B202B4208B6004308D9
:10060800B7004408B8004508B9000130BA00390DF0
:10061800B90CB80CB70CB60CBA0B0B2B3908C500C3
:100628003808C4003708C3003608C2000130C607BE
:100638000318C70A0030C7074708803AFF00803010
:100648007F02031D292BFF304602031C2C2B2D2B68
:10065800382B7F3083160313C5008030C400003068
:10066800C3000030C200692B831603134708803A81
:10067800FF0080307F02031D432B01304602031820
:10068800462B472B532B003083160313C50000302D
:10069800C4000030C3000030C200BB01692B8316C0
:1006A80003134608C100FF30C205FF30C3057F3081
:1006B800C4050030C505411C622B632B642BC4178D
:1006C8004108B6000310360CC5003B08B6003608D2
:1006D800C5044508B1004408B0004308AF0042080B
:1006E800AE0008008312031323088039AD002308E5
:1006F800A8002807B300A21F822B832B842B331456
:1007080033080319882B892B982B330A031D8D2B4B
:100718008E2B962B0030A3000030A2000030A100E1
:100728000030A000A217A02B0030A3000030A200C8
:100738000030A1000030A00027088039A800280850
:10074800AD062708A8002807B200A61FAC2BAD2BC2
:10075800AE2B321432080319B22BB32BC22B320A38
:10076800031DB72BB82BC02B0030A7000030A60004
:100778000030A5000030A400A617CA2B0030A7003F
:100788000030A6000030A5000030A400320803198C
:10079800CE2BCF2BD42B3308031DD32BD42BDD2BFF
:1007A8000030A3000030A2000030A1000030A000FB
:1007B800BA2E2008F00026080A168A11B0270A1255
:1007C8008A11710883120313B9007008B800380839
:1007D800A800A901AA01AB012B08B1002A08B000A2
:1007E8002908AF002808AE003908A800A901AA0105
:1007F800AB012B08B7002A08B6002908B50028085D
:10080800B4002108F00025080A168A11B0270A1238
:100818008A11710883120313B9007008B8003808E8
:10082800A800A901AA01AB012808AE0729080311ED
:100838000318013E0319212CAF072A0803110318D6
:10084800013E0319282CB0072B0803110318013E99
:1008580003192F2CB1073908A800A901AA01AB0177
:100868002808B407290803110318013E03193D2C71
:10087800B5072A0803110318013E0319442CB607CB
:100888002B0803110318013E03194B2CB707220844
:10089800F00024080A168A11B0270A128A11710872
:1008A80083120313B9007008B8003808A800A9011A
:1008B800AA01AB012808AE07290803110318013E55
:1008C8000319672CAF072A0803110318013E0319FF
:1008D8006E2CB0072B0803110318013E0319752C61
:1008E800B1073908A800A901AA01AB012808B40773
:1008F800290803110318013E0319832CB5072A0898
:1009080003110318013E03198A2CB6072B0803119B
:100918000318013E0319912CB7070830A8000310EB
:10092800AE0DAF0DB00DB10DA80B932C2108F00042
:1009380024080A168A11B0270A128A11710883122C
:100948000313B9007008B8003808A8003908A900CE
:10095800AA01AB012808AE07290803110318013EB4
:100968000319B72CAF072A0803110318013E03190E
:10097800BE2CB0072B0803110318013E0319C52C20
:10098800B1072008F00025080A168A11B0270A12B4
:100998008A11710883120313B9007008B800380867
:1009A800A8003908A900AA01AB012808AE07290840
:1009B80003110318013E0319E22CAF072A0803119B
:1009C8000318013E0319E92CB0072B08031103187B
:1009D800013E0319F02CB1070830A8000310AE0D32
:1009E800AF0DB00DB10DA80BF22C2008F0002408B3
:1009F8000A168A11B0270A128A1171088312031382
:100A0800B9007008B8003808A8003908A900AA0178
:100A1800AB012808AE07290803110318013E031982
:100A2800162DAF072A0803110318013E03191D2DBF
:100A3800B0072B0803110318013E0319242DB10731
:100A48002108F00026080A168A11B0270A128A110E
:100A5800710883120313B9007008B8003808A80099
:100A68003908A900AA01AB012808B407290803110D
:100A78000318013E0319412DB5072A08031103186D
:100A8800013E0319482DB6072B0803110318013E30
:100A980003194F2DB7072208F00025080A168A11F6
:100AA800B0270A128A11710883120313B90070085B
:100AB800B8003808A8003908A900AA01AB0128081D
:100AC800B407290803110318013E03196C2DB50753
:100AD8002A0803110318013E0319732DB6072B08C2
:100AE80003110318013E03197A2DB7072208F000F5
:100AF80026080A168A11B0270A128A117108831269
:100B08000313B9007008B8003808A8003908A9000C
:100B1800AA01AB0108300310A80DA90DAA0DAB0D51
:100B2800FF3E031D8F2D2808B40729080311031859
:100B3800013E0319A02DB5072A0803110318013E29
:100B48000319A72DB6072B0803110318013E031933
:100B5800AE2DB7072E08A8002F08A9003008AA0054
:100B68003108AB0018300310AB0CAA0CA90CA80C68
:100B7800FF3E031DB72D2808B407290803110318E1
:100B8800013E0319C82DB5072A0803110318013EB1
:100B98000319CF2DB6072B0803110318013E0319BB
:100BA800D62DB7070830A8000310AE0DAF0DB00D55
:100BB800B10DA80BD82D33083207A800A901A90D3B
:100BC8002808823EB80029080318013EFF3EB900F4
:100BD8000A2E0130A8000310B40DB50DB60DB70DDF
:100BE800A80BEF2DB11FF92DFA2DFB2D3414013070
:100BF800A8000310AE0DAF0DB00DB10DA80BFD2D63
:100C0800FF30B8070318B90AFF30B907B61F0D2E11
:100C18000E2EED2DB201B11F122E132E2F2EFF30E6
:100C28002E05A800FF302F05A900FF303005AA00C7
:100C38007F303105AB002B082A0429042804031946
:100C4800262E272E2A2EB201B20A2F2E341C2D2E24
:100C58002E2E2F2E272E32080319332E342E652ED2
:100C68000130B407003003180130B507003003180D
:100C78000130B607003003180130B707371C452E7E
:100C8800462E652E3408A8003508A9003608AA00A3
:100C98003708AB000130AC002B0DAB0CAA0CA90C2B
:100CA800A80CAC0B502E2B08B7002A08B600290850
:100CB800B5002808B4000130B8070318B90A003095
:100CC800B9073908803AFF0080307F02031D6E2E75
:100CD800FF303802031C712E722E7D2E7F30831256
:100CE8000313B7008030B6000030B5000030B40000
:100CF800AE2E831203133908803AFF0080307F023A
:100D0800031D882E0130380203188B2E8C2E982E46
:100D1800003083120313B7000030B6000030B5006E
:100D28000030B400AD01AE2E831203133808B300AF
:100D3800FF30B405FF30B5057F30B6050030B70584
:100D4800331CA72EA82EA92EB6173308A800031007
:100D5800280CB7002D08A8002808B7043708A300F6
:100D68003608A2003508A1003408A0000800831244
:100D780003130514053083160313EE00EE0BC22E81
:100D8800C52E831203130510851CCB2ECC2EC82E1E
:100D98008E018F0110148518D22ED32ECF2E0F0856
:100DA80083160317CD00831203130E088316031747
:100DB800CC00831203131010831603174C088316F4
:100DC8000313A000831603174D0883160313A1000D
:100DD800A201A30100300A128A15A0230A128A115F
:100DE800831603132308B5002208B4002108B300B2
:100DF8002008B2003F30B1000030B0000030AF0032
:100E08000030AE000A128A1131200A128A118316A4
:100E18000313310883160317CB0083160313300816
:100E280083160317CA00831603132F0883160317A4
:100E3800C900831603132E0883160317C8004B082E
:100E480083160313B500831603174A088316031382
:100E5800B40083160317490883160313B3008316D7
:100E68000317480883160313B2003F30B1008030DF
:100E7800B0000030AF000030AE000A128A113120F5
:100E88000A128A11831603133108CF003008CE00E6
:100E98002F08CD002E08CC004230CB006830CA00A5
:100EA8000030C9000030C8000A128A152D260A121F
:100EB8008A11831603134B08E5004A08E400490821
:100EC800E3004808E2000A128A1183270A128A11ED
:100ED80083160313630883160317CF0083160313BF
:100EE800620883160317CE004F0883160313ED001C
:100EF800831603174E0883160313EC00080003102B
:100F080083160313640D650DEB006B08031D8D2F0D
:100F18008E2F972F0030E5000030E4000030E3000A
:100F28000030E200FA2F6208E6006308E700640870
:100F3800E8006508E9001F300310E90CE80CE70C2D
:100F4800E60CFF3E031DA02F6608EA00E417FF30F9
:100F5800E205FF30E305FF30E4050030E505963093
:100F6800EB02EB1FB82FB92FD32F6B08803A973EAF
:100F78000318BF2FC02FC12F8E2F01300310E50C8F
:100F8800E40CE30CE20CFF3E031DC22F0130E60027
:100F98006608EB07031DD12FD22FC12FEA2F20306F
:100FA8006B02031CD82FD92FE52F8E2F0130E600B6
:100FB8000310E20DE30DE40DE50DE60BDC2F013027
:100FC800EB026B08031DE92FEA2FDA2F6A080319D1
:100FD800EE2FEF2FFA2FE209E309E409E509E20A07
:100FE8000319E30A0319E40A0319E50A080001349E
:020FF8000034C3
:1010220064008001840A04060319003404061228AD
:101032008316031788018901023083160313850082
:101042000330860087018801890183120313850119
:1010520086018701880189018B150B178B170B10ED
:101062008316031381128111011581140114811356
:10107200151495149614161470308F040F148312DD
:1010820003139001C0300A168A1176270A128A15B4
:10109200080083160313A000201C5028512855284D
:1010A200831203130616582883120313061283169B
:1010B2000313A01C5D285E28622883120313861680
:1010C200652883120313861283160313201D6A28D0
:1010D2006B286F28831203130617722883120313D7
:1010E200061383160313A01D772878287C28831201
:1010F200031386177F2883120313861308000A122C
:101102008A1519200A128A150A128A15C9200A128A
:101112008A150A128A11BB260A128A15831603132C
:101122006D0883160317C700831603136C08831612
:101132000317C60046088312031388008316031799
:101142004708803AFF0080307F02031DAA280F3033
:1011520046020318AD28AE28B328831203130815DC
:101162008811B728831203130811881510308316CB
:101172000317D2003930D1000D30D000D00BBF2878
:10118200D10BBF28D20BBF288A280A128A11102835
:1011920000300A128A154A200A128A153430831640
:1011A2000313A500F130A400A40BD528A50BD52864
:1011B20003300A168A1190270A128A150D308316F7
:1011C2000313A500FB30A400A40BE528A50BE5281A
:1011D20003300A168A1190270A128A158430831660
:1011E2000313A400A40BF328000003300A168A118B
:1011F20090270A128A1502300A168A1190270A12BB
:101202008A1502300A168A1190270A128A150830A6
:101212000A168A1190270A128A1500300A168A11B4
:1012220090270A128A150C300A168A1190270A1280
:101232008A1500300A168A1190270A128A1506307A
:101242000A168A1190270A128A154130831603134F
:10125200A400A40B2A292D290800031083120313CA
:10126200560D570DDD005D08031D38293929422925
:101272000030D7000030D6000030D5000030D40056
:10128200A5295408D8005508D9005608DA0057088D
:10129200DB001F300310DB0CDA0CD90CD80CFF3E3C
:1012A200031D4B295808DC00D617FF30D405FF3048
:1012B200D505FF30D6050030D7059630DD02DD1F9B
:1012C200632964297E295D08803A973E03186A29BA
:1012D2006B296C29392901300310D70CD60CD50C97
:1012E200D40CFF3E031D6D290130D8005808DD07DC
:1012F200031D7C297D296C29952920305D02031C60
:1013020083298429902939290130D8000310D40D6A
:10131200D50DD60DD70DD80B87290130DD025D081A
:10132200031D9429952985295C08031999299A296D
:10133200A529D409D509D609D709D40A0319D50A8A
:101342000319D60A0319D70A0800831203130514D6
:10135200053083120313E000E00BAD29B02983129C
:1013620003130510851CB629B729B3298E018F01F5
:1013720010148518BD29BE29BA290F08E6000E08E7
:10138200E50010106508F0006608F100F201F301B3
:1013920000300A128A15E8220A128A15730883128B
:1013A2000313A7007208A6007108A5007008A40024
:1013B2003F30A3000030A2000030A1000030A000A6
:1013C2000A128A1176230A128A158312031323083A
:1013D200E4002208E3002108E2002008E10064089A
:1013E200A7006308A6006208A5006108A4003F30B8
:1013F200A3008030A2000030A1000030A0000A1239
:101402008A1176230A128A15831203132308C10054
:101412002208C0002108BF002008BE004230BD00E3
:101422006830BC000030BB000030BA000A128A15D6
:101432005A240A128A15831203133D08D7003C0866
:10144200D6003B08D5003A08D4000A128A152E218C
:101452000A128A15831203135508E8005408E7009C
:101462006808DF006708DE0008000B1C392A3A2AE8
:10147200502A86183D2A3E2A4B2A83160317530CFC
:1014820083120313031C881003188814861C4A2A2B
:101492004B2A472A0B1083160317D309D409831248
:1014A20003138C1D552A562ADF2A1412141B5A2A9A
:1014B2005B2A5F2A941F5E2A5F2A712A1308E900B9
:1014C200EA01690883160317C200831203136A082C
:1014D20083160317C30083120313141394131416F1
:1014E20083160313941A762A772AAB2A14197A2AB6
:1014F2007B2AAB2A831203131308E900EA01690865
:1015020083160317C200831203136A088316031794
:10151200C300831203138C11141683160313141CB5
:10152200932A942A8E2A831203131308E900EA01EC
:10153200690883160317C400831203136A0883160B
:101542000317C500A53083120313E900E90BA72A8C
:10155200AA2ADC2A941AAE2AAF2ADC2A141DB22A3D
:10156200B32ADC2A831203131308E900EA0169088B
:1015720083160317C200831203136A088316031724
:10158200C3008316031314100A128A15A6210A1225
:101592008A15831203135E0893001416A530831272
:1015A2000313E900E90BD32AD62A8316031314186E
:1015B200DB2ADC2AD62A831203138C116D08FF0062
:1015C2006C088A006B0E8300FE0E7E0E0900F80086
:1015D20078080319ED2AEE2A022BF31FF12AF22AC8
:1015E200022B7009FA007109FB007209FC007309F1
:1015F200FD00FA0A0319FB0A0319FC0A0319FD0A82
:101602000A2B7308FD007208FC007108FB007008C9
:10161200FA007308720471047004031D112B122B5B
:101622001B2B0030F3000030F2000030F1000030DC
:10163200F0009F2B9630F9002B2B0130F400740838
:10164200F90701300310FD0CFC0CFB0CFA0CFF3EF9
:10165200031D232BFE307D05031D302B312B1E2B4A
:101662004D2B0130F4007408F9070130FA070030FD
:1016720003180130FB07003003180130FC0700306B
:1016820003180130FD0701300310FD0CFC0CFB0CAC
:10169200FA0CFF3E031D452BFF307D05031D522B27
:1016A200532B322B5F2B0130F9020130F40003106F
:1016B200FA0DFB0DFC0DFD0DF40B582BFC1B622BE0
:1016C200632B692B023079020318682B692B542B88
:1016D20079186C2B6D2B752BFF30FA05FF30FB054B
:1016E2007F30FC05FF30FD050310F90C7908F4008A
:1016F200F501F601F70118300310F40DF50DF60DA2
:10170200F70DFF3E031D7D2B7408FA047508FB04D8
:101712007608FC047708FD0478080319912B922BB4
:10172200972BF31F952B962B972BFD177D08F30014
:101732007C08F2007B08F1007A08F00008008316AA
:101742000313A80028080319A72BA82BBC2BA31F3F
:10175200AB2BAC2BBC2B2009AA002109AB00220920
:10176200AC002309AD00AA0A0319AB0A0319AC0A9B
:101772000319AD0AC42B2308AD002208AC002108CE
:10178200AB002008AA002308220421042004031D20
:10179200CB2BCC2BD52B0030A3000030A200003085
:1017A200A1000030A000592C9630A900E52B013091
:1017B200A4002408A90701300310AD0CAC0CAB0C3B
:1017C200AA0CFF3E031DDD2BFE302D05031DEA2B67
:1017D200EB2BD82B072C0130A4002408A9070130D9
:1017E200AA07003003180130AB070030031801309C
:1017F200AC07003003180130AD0701300310AD0C07
:10180200AC0CAB0CAA0CFF3E031DFF2BFF302D05C9
:10181200031D0C2C0D2CEC2B192C0130A9020130CC
:10182200A4000310AA0DAB0DAC0DAD0DA40B122C30
:10183200AC1B1C2C1D2C232C023029020318222C39
:10184200232C0E2C2918262C272C2F2CFF30AA05EE
:10185200FF30AB057F30AC05FF30AD050310A90C9E
:101862002908A400A501A601A70118300310A40DA0
:10187200A50DA60DA70DFF3E031D372C2408AA04B3
:101882002508AB042608AC042708AD042808031970
:101892004B2C4C2C512CA31F4F2C502C512CAD17E0
:1018A2002D08A3002C08A2002B08A1002A08A000E2
:1018B20008008312031341088039CB004108C2009B
:1018C2004207D200C01F662C672C682C52145208A3
:1018D20003196C2C6D2C7D2C520A031D712C722C59
:1018E2007A2C0030C1000030C0000030BF00003050
:1018F200BE00C017C101852C0030C1000030C000FD
:101902000030BF000030BE003D088039C2004208EE
:10191200CB063D08C2004207D300BC1F912C922C7B
:10192200932C531453080319972C982CA82C530A60
:10193200031D9C2C9D2CA52C0030BD000030BC004A
:101942000030BB000030BA00BC17BD01B02C003023
:10195200BD000030BC000030BB000030BA003D08C2
:101962003C043B043A04031DB72CB82CD12C0030A4
:10197200C1000030C0000030BF000030BE00803027
:10198200C0047F30C1044B08C2004208C1044108B0
:10199200BD004008BC003F08BB003E08BA002C2E28
:1019A2005208031DD52CD62CDF2C0030BD00003090
:1019B200BC000030BB000030BA002C2E5208C2001E
:1019C200C3014308C50053084202C400031CC503F7
:1019D20044087F3ECC0045080318013E003ECD007E
:1019E2004108CA004008C9003F08C8003E08C700B5
:1019F2000030C1000030C0000030BF000030BE0027
:101A02000030D1000030D0000030CF000030CE00D6
:101A1200D301552D530803190F2D102D302D0130F0
:101A2200C2000310C70DC80DC90DCA0DC20B122D7D
:101A32000130C2000310BE0DBF0DC00DC10DC20B9F
:101A42001B2DD11F252D262D272D3E140130C2001E
:101A52000310CE0DCF0DD00DD10DC20B292D3D0897
:101A62004A02031D3E2D3C084902031D3E2D3B0840
:101A72004802031D3E2D3A084702031C412D422D08
:101A8200512D51173A08C7023B08031C3B0FC802ED
:101A92003C08031C3C0FC9023D08031C3D0FCA024F
:101AA2000130C2004208D3071A305302031C5A2DD8
:101AB2005B2D0B2D4A084904480447040319622D83
:101AC200632D822D4E14822D0130C2000310BE0DF3
:101AD200BF0DC00DC10DC20B672DD11F712D722D0F
:101AE200732D3E140130C2000310CE0DCF0DD00D68
:101AF200D10DC20B752DFF30CC070318CD0AFF3074
:101B0200CD07C01F852D862D652DD301D11F8A2DAE
:101B12008B2DA72DFF304E05C200FF304F05C300AD
:101B2200FF305005C4007F305105C500450844040C
:101B32004304420403199E2D9F2DA22DD301D30AE3
:101B4200A72D3E1CA52DA62DA72D9F2D53080319A9
:101B5200AB2DAC2DDD2D0130BE0700300318013056
:101B6200BF07003003180130C007003003180130EE
:101B7200C107411CBD2DBE2DDD2D3E08C2003F0810
:101B8200C3004008C4004108C5000130C600450D2D
:101B9200C50CC40CC30CC20CC60BC82D4508C10031
:101BA2004408C0004308BF004208BE000130CC0711
:101BB2000318CD0A0030CD074D08803AFF0080306F
:101BC2007F02031DE62DFF304C02031CE92DEA2D96
:101BD200F82DFF3083120313CC000030CD0000300B
:101BE200C1000030C0000030BF000030BE008312D0
:101BF20003134D08803AFF0080307F02031D032E3D
:101C020001304C020318062E072E142E83120313E2
:101C1200CC01CD010030C1000030C0000030BF0057
:101C22000030BE00CB01831203134C08D200521CB9
:101C32001B2E1C2E1E2EC017222E7F30C2004208E1
:101C4200C0055208C2000310420CC1004B08C2007A
:101C52004208C104C82C0800831603134F088039B8
:101C6200D9004F08D0005007E000CE1F392E3A2E7F
:101C72003B2E6014600803193F2E402E502E600A3E
:101C8200031D442E452E4D2E0030CF000030CE00D5
:101C92000030CD000030CC00CE17CF01582E0030DE
:101CA200CF000030CE000030CD000030CC004B0819
:101CB2008039D0005008D9064B08D0005007E10007
:101CC200CA1F642E652E662E6114610803196A2EDE
:101CD2006B2E7B2E610A031D6F2E702E782E003024
:101CE200CB000030CA000030C9000030C800CA175B
:101CF200CB01832E0030CB000030CA000030C90077
:101D02000030C8004B084A0449044804031D8A2EC7
:101D12008B2EA42E0030CF000030CE000030CD003C
:101D22000030CC008030CE047F30CF045908D00080
:101D32005008CF044F08CB004E08CA004D08C90016
:101D42004C08C800FF2F6008031DA82EA92EB22E32
:101D52000030CB000030CA000030C9000030C8009B
:101D6200FF2F6008D000D1015108D3006108500252
:101D7200D200031CD30352087F3EDA005308031833
:101D8200013E003EDB004F08D8004E08D7004D0848
:101D9200D6004C08D5000030CF000030CE00003015
:101DA200CD000030CC000030DF000030DE0000301B
:101DB200DD000030DC00E101282F61080319E22E6A
:101DC200E32E032F0130D0000310D50DD60DD70D11
:101DD200D80DD00BE52E0130D0000310CC0DCD0D67
:101DE200CE0DCF0DD00BEE2EDF1FF82EF92EFA2ED0
:101DF2004C140130D0000310DC0DDD0DDE0DDF0DC3
:101E0200D00BFC2E4B085802031D112F4A08570213
:101E1200031D112F49085602031D112F48085502B0
:101E2200031C142F152F242F5F174808D5024908C9
:101E3200031C490FD6024A08031C4A0FD7024B085B
:101E4200031C4B0FD8020130D0005008E1071A30B2
:101E52006102031C2D2F2E2FDE2E58085704560424
:101E620055040319352F362F552F5C14552F013089
:101E7200D0000310CC0DCD0DCE0DCF0DD00B3A2FCF
:101E8200DF1F442F452F462F4C140130D000031082
:101E9200DC0DDD0DDE0DDF0DD00B482FFF30DA0734
:101EA2000318DB0AFF30DB07CE1F582F592F382FBC
:101EB200E101DF1F5D2F5E2F7A2FFF305C05D0001E
:101EC200FF305D05D100FF305E05D2007F305F0537
:101ED200D30053085204510450040319712F722F76
:101EE200752FE101E10A7A2F4C1C782F792F7A2F76
:101EF200722F610803197E2F7F2FB02F0130CC077C
:101F0200003003180130CD07003003180130CE072E
:101F1200003003180130CF074F1C902F912FB02FA4
:101F22004C08D0004D08D1004E08D2004F08D30013
:101F32000130D400530DD30CD20CD10CD00CD40BE5
:101F42009B2F5308CF005208CE005108CD005008F5
:101F5200CC000130DA070318DB0A0030DB075B082C
:101F6200803AFF0080307F02031DB92FFF305A02F2
:101F7200031CBC2FBD2FCB2FFF3083160313DA00B7
:101F82000030DB000030CF000030CE000030CD004A
:101F92000030CC00831603135B08803AFF008030C8
:101FA2007F02031DD62F01305A020318D92FDA2FD0
:101FB200E72F83160313DA01DB010030CF00003074
:101FC200CE000030CD000030CC00D90183160313BF
:101FD2005A08E000601CEE2FEF2FF12FCE17F52FDD
:101FE2007F30D0005008CE056008D0000310500C9E
:0E1FF200CF005908D0005008CF049B2E0800E5
:102EEC0083160313A00020089300363083120313BB
:102EFC0094008030831603139400013091008715E1
:102F0C0007168B170B17831203138C1183160313DD
:102F1C008C15080083160313A300831203130813E4
:102F2C008316031323080A128A154A200A168A11DB
:102F3C008312031388170B3083160313A20061301E
:102F4C00A100A10BA72FA20BA72FAC2F8312031349
:102F5C0088130800F800F401F5017008F200F30181
:102F6C007208F6007308F700781CBD2FBE2FC42F13
:102F7C007608F4070318F50A7708F50701300310F3
:102F8C00F60DF70DFF3E031DC52F0310F80C780846
:102F9C00031DD12FD22FBA2F7508F1007408F00041
:102FAC00080083160313A800A401A5012008A200A1
:102FBC00A3012208A6002308A700281CE62FE72F50
:102FCC00ED2F2608A4070318A50A2708A50701302A
:102FDC000310A60DA70DFF3E031DEE2F0310A80C2A
:102FEC002808031DFA2FFB2FE32F2508A100240826
:042FFC00A000080029
:08400000FF3FFF3FFF3FFF3FC0
:04400E00D420FF3F7C
:00000001FF
