:060000000A128A11122809
:10000800FE00030E83120313AF000408B0000A08B1
:10001800B1007F08B2000A128A1137280A128A1121
:1000280015280A128A118D220A128A11FB000A1257
:100038008A118E220A128A11FC000A128A118F2252
:100048000A128A11FD00A001A101A201A301A401C5
:10005800A501A601A701A801A901AA01AB01830175
:100068000A128A1191290B1D3A283B28BA2821081F
:10007800FA002008F9000A128A112E210A128A11A0
:100088008312031386012708F1002608F0000A12DC
:100098008A1182220A128A1183120313AC00AD015D
:1000A8002C08A4002D08A500240888000430860028
:1000B800023083120313AE000430AD00B930AC0037
:1000C800AC0B6428AD0B6428AE0B64286B28831234
:1000D800031386012908F1002808F0000A128A1182
:1000E80082220A128A1183120313AC00AD012C0874
:1000F800A4002D08A50024088800023086000230DC
:1001080083120313AE000430AD00B930AC00AC0B61
:100118008B28AD0B8B28AE0B8B28922883120313E8
:1001280086012B08F1002A08F0000A128A1182229F
:100138000A128A1183120313AC00AD012C08A40023
:100148002D08A5002408880001308600023083129B
:100158000313AE000430AD00B930AC00AC0BB228CC
:10016800AD0BB228AE0BB228B9280B1183120313BA
:100178003208FF0031088A00300884002F0E8300FF
:10018800FE0E7E0E0900F601F11FCB28CC28D328DD
:10019800F009F109F00A0319F10AF601F60AF31F4A
:1001A800D628D728E028F209F309F20A0319F30A36
:1001B8000130F4007408F606F701F80170087104BC
:1001C8000319E728E8281F29F501F50AF628013060
:1001D8000310F00DF10DFF3E031DEC280130F40073
:1001E8007408F507F11FF928FA28EB2801300310E5
:1001F800F70DF80DFF3E031DFB2871087302031D60
:10020800072970087202031C0A290B291229700891
:10021800F2027108031CF303F30277140130031090
:10022800F10CF00CFF3E031D13290130F502031DEC
:100238001E291F29FA287608031923292429292980
:10024800F709F809F70A0319F80A7808F100770896
:10025800F00008006430F0000030F1007A08F30084
:100268007908F2000A128A11C7200A128A117B083B
:100278008400700883138000840A710880007B085A
:1002880084000008F000840A0008F1009C30F200A5
:10029800FF30F3000A128A115D220A128A117908C6
:1002A8007007F9007A0803187A0A7107FA000A3009
:1002B800F0000030F1007A08F3007908F2000A1221
:1002C8008A11C7200A128A117C08840070088313D7
:1002D8008000840A710880007C0884000008F0000F
:1002E800840A0008F1009C30F200FF30F3000A1283
:1002F8008A115D220A128A1179087007F9007A08B2
:1003080003187A0A7107FA007D08840079088313B4
:100318008000840A7A08800008000A128A11EC21F9
:100328000A128A11C330831203139F059F149F1862
:100338009E299F299B291E08A300831603131E08C4
:1003480083120313A2002308B6002208B500360D55
:10035800B60CB50C360DB60CB50C350887001A303E
:1003680083120313B600F730B500B50BB929B60BE5
:10037800B929BE29831203131F08C33910389F00F7
:100388009F149F18C829C929C5291E08A1008316CA
:1003980003131E0883120313A0002108B6002008C7
:1003A800B500360DB60CB50C360DB60CB50C3508C7
:1003B80088001A3083120313B600F730B500B50B66
:1003C800E329B60BE329E82996290A128A1112288B
:1003D8008316031788018901831603138601870191
:1003E800880170308F040F14811281110730810445
:1003F800C8308312031381000B118B168B178316D9
:1004080003130514831603170814C3308312031348
:100418009F05033083120313B4009730B300B30B66
:10042800132AB40B132A831603138516831603178E
:100438000816831203131F08C33910389F000330AE
:1004480083120313B4009730B300B30B292AB40BFB
:10045800292A831603139F171F129F16831203134B
:100468001F140C13080002308A000408840A82074B
:1004780000344034003479340034243400343034C7
:10048800003419340034123400340234003478341F
:100498000034003400341034003408340034033499
:1004A80000344634003421340034063400340E3429
:1004B8000034F401F501701C622A632A692A720863
:1004C800F4070318F50A7308F50701300310F20D55
:1004D800F30DFF3E031D6A2A01300310F10CF00CE6
:1004E800FF3E031D712A70087104031D7C2A7D2AB2
:1004F8005F2A7508F1007408F00008007008F2001F
:100508007207013E84000A128A1137220A128A11E0
:080518000800263428342A34BF
:08400000FF3FFF3FFF3FFF3FC0
:04400E00D420FF3F7C
:00000001FF
