:060000000A128A11122809
:10000800FE00030E83120313DC000408DD000A0857
:10001800DE007F08DF000A128A15392D0A128A11BC
:1000280015280A128A11ED270A128A11EC000A1201
:100038008A11EE270A128A11ED000A128A11EF2797
:100048000A128A11EE00E001E101E201E301E40194
:10005800E501E601E701E801E901EA01EB018301B5
:100068000A128A156A2C8312031339088039C300CF
:100078003908BE003E07C900B81F43284428452850
:1000880049144908031949284A285928490A031DC7
:100098004E284F2857280030B9000030B8000030EB
:1000A800B7000030B600B81761280030B90000303A
:1000B800B8000030B7000030B6003D088039BE00F7
:1000C8003E08C3063D08BE003E07C800BC1F6D2899
:1000D8006E286F2848144808031973287428832841
:1000E800480A031D7828792881280030BD0000308F
:1000F800BC000030BB000030BA00BC178B280030B1
:10010800BD000030BC000030BB000030BA00480819
:1001180003198F28902895284908031D94289528A5
:100128009E280030B9000030B8000030B700003019
:10013800B6007B2B3608F0003C080A128A11BB2750
:100148000A128A11710883120313CF007008CE00B7
:100158004E08BE00BF01C001C1014108C7004008E8
:10016800C6003F08C5003E08C4004F08BE00BF01D6
:10017800C001C1014108CD004008CC003F08CB00B8
:100188003E08CA003708F0003B080A128A11BB274C
:100198000A128A11710883120313CF007008CE0067
:1001A8004E08BE00BF01C001C1013E08C4073F0898
:1001B80003110318013E0319E228C507400803117B
:1001C8000318013E0319E928C6074108031103185B
:1001D800013E0319F028C7074F08BE00BF01C00140
:1001E800C1013E08CA073F0803110318013E03195D
:1001F800FE28CB07400803110318013E03190529FF
:10020800CC07410803110318013E03190C29CD0737
:100218003808F0003A080A128A11BB270A128A1114
:10022800710883120313CF007008CE004E08BE0079
:10023800BF01C001C1013E08C4073F0803110318EC
:10024800013E03192829C507400803110318013E78
:1002580003192F29C607410803110318013E031982
:100268003629C7074F08BE00BF01C001C1013E08BB
:10027800CA073F0803110318013E03194429CB0795
:10028800400803110318013E03194B29CC07410804
:1002980003110318013E03195229CD070830BE0087
:1002A8000310C40DC50DC60DC70DBE0B5429370864
:1002B800F0003A080A128A11BB270A128A1171083B
:1002C80083120313CF007008CE004E08BE004F08FB
:1002D800BF00C001C1013E08C4073F08031103184D
:1002E800013E03197829C507400803110318013E88
:1002F80003197F29C607410803110318013E031992
:100308008629C7073608F0003B080A128A11BB275E
:100318000A128A11710883120313CF007008CE00E5
:100328004E08BE004F08BF00C001C1013E08C40707
:100338003F0803110318013E0319A329C507400804
:1003480003110318013E0319AA29C607410803111E
:100358000318013E0319B129C7070830BE0003106E
:10036800C40DC50DC60DC70DBE0BB3293608F00068
:100378003A080A128A11BB270A128A1171088312D5
:100388000313CF007008CE004E08BE004F08BF0010
:10039800C001C1013E08C4073F0803110318013E0C
:1003A8000319D729C507400803110318013E03198B
:1003B800DE29C607410803110318013E0319E52980
:1003C800C7073708F0003C080A128A11BB270A122F
:1003D8008A11710883120313CF007008CE004E08EB
:1003E800BE004F08BF00C001C1013E08CA073F0850
:1003F80003110318013E0319022ACB074008031111
:100408000318013E0319092ACC07410803110318F0
:10041800013E0319102ACD073808F0003B080A12DC
:100428008A11BB270A128A11710883120313CF009D
:100438007008CE004E08BE004F08BF00C001C101C1
:100448003E08CA073F0803110318013E03192D2A65
:10045800CB07400803110318013E0319342ACC07BF
:10046800410803110318013E03193B2ACD07380838
:10047800F0003C080A128A11BB270A128A11710877
:1004880083120313CF007008CE004E08BE004F0839
:10049800BF00C001C10108300310BE0DBF0DC00D63
:1004A800C10DFF3E031D502A3E08CA073F0803112D
:1004B8000318013E0319612ACB07400803110318EA
:1004C800013E0319682ACC07410803110318013EAD
:1004D80003196F2ACD074408BE004508BF00460827
:1004E800C0004708C10018300310C10CC00CBF0C75
:1004F800BE0CFF3E031D782A3E08CA073F080311B9
:100508000318013E0319892ACB0740080311031871
:10051800013E0319902ACC07410803110318013E34
:100528000319972ACD070830BE000310C40DC50D66
:10053800C60DC70DBE0B992A49084807BE00BF0162
:10054800BF0D3E08823ECE003F080318013EFF3E25
:10055800CF00CB2A0130BE000310CA0DCB0DCC0D45
:10056800CD0DBE0BB02AC71FBA2ABB2ABC2A4A1413
:100578000130BE000310C40DC50DC60DC70DBE0B5E
:10058800BE2AFF30CE070318CF0AFF30CF07CC1F93
:10059800CE2ACF2AAE2AC801C71FD32AD42AF02AC6
:1005A800FF304405BE00FF304505BF00FF3046055B
:1005B800C0007F304705C100410840043F043E04A5
:1005C8000319E72AE82AEB2AC801C80AF02A4A1CB4
:1005D800EE2AEF2AF02AE82A48080319F42AF52A0D
:1005E800262B0130CA07003003180130CB07003032
:1005F80003180130CC07003003180130CD074D1C1B
:10060800062B072B262B4A08BE004B08BF004C08B8
:10061800C0004D08C1000130C200410DC10CC00C22
:10062800BF0CBE0CC20B112B4108CD004008CC00FA
:100638003F08CB003E08CA000130CE070318CF0A96
:100648000030CF074F08803AFF0080307F02031D3B
:100658002F2BFF304E02031C322B332B3E2B7F30C7
:1006680083120313CD008030CC000030CB00003063
:10067800CA006F2B831203134F08803AFF008030A3
:100688007F02031D492B01304E0203184C2B4D2BC2
:10069800592B003083120313CD000030CC000030FA
:1006A800CB000030CA00C3016F2B831203134E081E
:1006B800C900FF30CA05FF30CB057F30CC050030BC
:1006C800CD05491C682B692B6A2BCC174908BE003D
:1006D80003103E0CCD004308BE003E08CD044D0873
:1006E800B9004C08B8004B08B7004A08B600080023
:1006F80073088039F800730883120313A0002007D9
:10070800FA00F21F882B892B8A2B7A147A0803198E
:100718008E2B8F2B9F2B7A0A031D932B942B9C2BAC
:100728000030F3000030F2000030F1000030F0003B
:10073800F217F301A72B0030F3000030F20000306D
:10074800F1000030F00077088039F9007908780660
:100758000319AF2BB02BB12B78177708A00020070F
:10076800F900F61FB82BB92BBA2B7914790803199D
:10077800BE2BBF2BCF2B790A031DC32BC42BCC2B2D
:100788000030F7000030F6000030F5000030F400CB
:10079800F617F701D72B0030F7000030F6000030CD
:1007A800F5000030F4007A0879020318DC2BDD2B01
:1007B800032C781FE02BE12BE52B8030A0002008CC
:1007C800F8067A08FB007908FA007B08F900700837
:1007D800FB007408F0007B08F4007108FB00750842
:1007E800F1007B08F5007208FB007608F2007B0830
:1007F800F6007308FB007708F3007B08F700FB019D
:100808007908A000A1012108A3007A082002A2000B
:10081800031CA3032308803AFF0080307F02031DD6
:10082800172C1A302202031C1A2C1B2C542C730868
:10083800720471047004031D222C242C0130252C11
:100848000030FB000030F3000030F2000030F1000F
:100858000030F0007908FA005A2C7B1C342C352C17
:100868003E2C7B0883120313A0000310200C0138D0
:10087800FB00402C0310FB0C701C432C442C452C13
:10088800FB17013083120313A000730DF30CF20C55
:10089800F10CF00CA00B492C0130A0002008FA073D
:1008A80079087A02031C592C5A2C312C781B5D2CA0
:1008B8005E2CAB2C7A08031D622C632C6C2C003048
:1008C800F3000030F2000030F1000030F000E12DBC
:1008D8007408F007750803110318013E0319752CF5
:1008E800F107760803110318013E03197C2CF2075F
:1008F800770803110318013E0319832CF307731CAF
:10090800862C872C632D7B1C8A2C8B2C942C7B08A3
:1009180083120313A0000310200C0138FB00962C4F
:100928000310FB0C701C992C9A2C9B2CFB17013084
:1009380083120313A000730DF30CF20CF10CF00CEE
:10094800A00B9F2C0130A0002008FA07632D730824
:10095800803AFF007708803A7F02031DBD2C760895
:100968007202031DBD2C75087102031DBD2C74088D
:1009780070020318C02CC12C1B2DFF3083120313E7
:10098800A000FF30A100FF30A200FF30A3007408D0
:10099800A4007508A5007608A6007708A7007008C7
:1009A800A4027108031C710FDA2CDB2CA502720853
:1009B800031C720FE02CE12CA6027308031C730FB2
:1009C800E62CE72CA7022408A00725080318250F02
:1009D800EE2CEF2CA10726080318260FF42CF52C73
:1009E800A20727080318270AA3072308F3002208E9
:1009F800F2002108F1002008F0008030A000200853
:100A0800F806FB09FB0A7B08031D0B2D0C2D292D6D
:100A18000130F007003003180130F10700300318E7
:100A28000130F207003003180130F307292D74084C
:100A3800F0027508031C750FF1027608031C760F87
:100A4800F2027708031C770FF3027308720471042B
:100A58007004031D302D312D5F2D7B08031D352DAE
:100A6800362D5F2D0030F3000030F2000030F10029
:100A78000030F000E12D013083120313A0000310B1
:100A8800F00DF10DF20DF30DA00B432DFB1F4D2DB5
:100A98004E2D4F2D70147B1C522D532D562D0314A3
:100AA800FB0D582D0310FB0D7A0803195C2D5D2DE5
:100AB8005F2D0130FA02F21F622D632D3F2DF901DF
:100AC800FB1F672D682D762D7B087F3903196D2D47
:100AD8006E2D712DF901F90A762D701C742D752D66
:100AE800762D6E2D790803197A2D7B2DB12D0130C5
:100AF800F007003003180130F10700300318013007
:100B0800F207003003180130F307731C8C2D8D2D6C
:100B1800B12D700883120313A0007108A100720898
:100B2800A2007308A3000130A400230DA30CA20C9B
:100B3800A10CA00CA40B992D2308F3002208F200A5
:100B48002108F1002008F0007A0A0319AC2DAD2D18
:100B5800B12D0130A0002008FA077A0A0319B52D33
:100B6800B62DBB2D7A08031DBA2DBB2DC92D00301B
:100B7800F3000030F2000030F1000030F0007A0895
:100B8800031DC72DC82DC92DF8017A1CCC2DCD2DDC
:100B9800CF2DF217D52D7F3083120313A000200824
:100BA800F2057A0883120313A0000310200CF30047
:100BB800F81FDF2DE02DE12DF317080077088039A5
:100BC80083120313A4007708F8007807AB00F61F18
:100BD800EE2DEF2DF02D2B142B080319F42DF52DE8
:100BE800052E2B0A031DF92DFA2D022E0030F700D1
:100BF8000030F6000030F5000030F400F617F70179
:100C08000D2E0030F7000030F6000030F5000030FF
:100C1800F40073088039F8007808A4067308F8000F
:100C28007807AC00F21F192E1A2E1B2E2C142C0834
:100C380003191F2E202E302E2C0A031D242E252E9C
:100C48002D2E0030F3000030F2000030F1000030AB
:100C5800F000F217F301382E0030F3000030F200F4
:100C68000030F1000030F000730872047104700461
:100C7800031D3F2E402E592E0030F7000030F6009D
:100C88000030F5000030F4008030F6047F30F704BF
:100C98002408F8007808F7047708F3007608F200CB
:100CA8007508F1007408F000BA2F2B08031D5D2E9B
:100CB8005E2E672E0030F3000030F2000030F100A5
:100CC8000030F000BA2F2B08F800F9017908FB0072
:100CD8002C087802FA00031CFB037A087F3EA50063
:100CE8007B080318013E003EA6007708A30076089B
:100CF800A2007508A1007408A0000030F7000030B9
:100D0800F6000030F5000030F4000030AA00003092
:100D1800A9000030A8000030A700AC01E32E2C0881
:100D28000319972E982EB82E0130F8000310A00D45
:100D3800A10DA20DA30DF80B9A2E0130F800031097
:100D4800F40DF50DF60DF70DF80BA32EAA1FAD2E19
:100D5800AE2EAF2E74140130F8000310A70DA80DA5
:100D6800A90DAA0DF80BB12E73082302031DC62E78
:100D780072082202031DC62E71082102031DC62E09
:100D880070082002031CC92ECA2EDF2E2A177008ED
:100D9800A0027108031C710FD22ED32EA102720873
:100DA800031C720FD82ED92EA2027308031C730FCE
:100DB800DE2EDF2EA3020130F8007808AC071A30C7
:100DC8002C02031CE82EE92E932E2308220421046A
:100DD80020040319F02EF12E102F2714102F0130A4
:100DE800F8000310F40DF50DF60DF70DF80BF52EC0
:100DF800AA1FFF2E002F012F74140130F8000310D2
:100E0800A70DA80DA90DAA0DF80B032FFF30A507F4
:100E18000318A60AFF30A607F61F132F142FF32E68
:100E2800AC01AA1F182F192F352FFF302705F800FE
:100E3800FF302805F900FF302905FA007F302A0520
:100E4800FB007B087A047904780403192C2F2D2FD2
:100E5800302FAC01AC0A352F741C332F342F352FAB
:100E68002D2F2C080319392F3A2F6B2F0130F40737
:100E7800003003180130F507003003180130F60779
:100E8800003003180130F707771C4B2F4C2F6B2FBE
:100E98007408F8007508F9007608FA007708FB006E
:100EA8000130FC007B0DFB0CFA0CF90CF80CFC0B68
:100EB800562F7B08F7007A08F6007908F5007808BD
:100EC800F4000130A5070318A60A0030A607260873
:100ED800803AFF0080307F02031D742FFF30250207
:100EE800031C772F782F862FFF3083120313A5005A
:100EF8000030A6000030F7000030F6000030F500A2
:100F08000030F400831203132608803AFF00803073
:100F18007F02031D912F013025020318942F952F6E
:100F2800A22F83120313A501A6010030F700003099
:100F3800F6000030F5000030F400A401831203131A
:100F48002508AB002B1CA92FAA2FAC2FF617B02F02
:100F58007F30F8007808F6052B08F8000310780CA5
:100F6800F7002408F8007808F704502E0800F80065
:100F7800F401F5017008F200F3017208F600730835
:100F8800F700781CC82FC92FCF2F7608F40703184D
:100F9800F50A7708F50701300310F60DF70DFF3E47
:100FA800031DD02F0310F80C7808031DDC2FDD2F4C
:100FB800C52F7508F1007408F00008007008F200E9
:100FC8007207013E84000A128A1500200A128A114B
:080FD8000800663468346A3435
:1010000008308A000408840A82070034403400341F
:10101000793400342434003430340034193400344A
:101020001234003402340034783400340034003494
:1010300010340034083400340334003446340034AF
:0C10400021340034063400340E34003437
:1017AC00803083120313B9063D08F3003C08F200A5
:1017BC003B08F1003A08F0003908F7003808F60049
:1017CC003708F5003608F4000A128A117C230A1235
:1017DC008A15730883120313B9007208B8007108D4
:1017EC00B7007008B6000800F401F501701CFF2B5F
:1017FC00002C062C7208F4070318F50A7308F50779
:10180C0001300310F20DF30DFF3E031D072C0130C8
:10181C000310F10CF00CFF3E031D0E2C700871042C
:10182C00031D192C1A2CFC2B7508F1007408F00000
:10183C000800831603178801890183160313860198
:10184C008701880170308F040F14811281110730C9
:10185C008104C8308312031381000B118B168B1774
:10186C00831603130514831603170814C33083124D
:10187C0003139F05033083160313A1009730A000B8
:10188C00A00B462CA10B462C83160313851683162E
:10189C0003170816831203131F08C33910389F004F
:1018AC00033083160313A1009730A000A00B5C2C0F
:1018BC00A10B5C2C831603139F171F129F16831208
:1018CC0003131F140C1308000A128A151F240A1282
:1018DC008A15C330831203139F059F149F18772C0E
:1018EC00782C742C1E08E300831603131E08831235
:1018FC000313E200630883160313A300831203137C
:10190C00620883160313A200230DA30CA20C230D53
:10191C00A30CA20C22088312031387001A3083161F
:10192C000313A300F730A200A20B9A2CA30B9A2C42
:10193C009F2C831203131F08C33910389F009F1468
:10194C009F18A92CAA2CA62C1E08E10083160313A1
:10195C001E0883120313E0001A3083160313A3002E
:10196C00F730A200A20BB82CA30BB82CBD2C6F2CFB
:10197C000A128A111228031083120313400D410D11
:10198C00C7004708031DCB2CCC2CD52C0030C10034
:10199C000030C0000030BF000030BE00382D3E08C3
:1019AC00C2003F08C3004008C4004108C5001F30F6
:1019BC000310C50CC40CC30CC20CFF3E031DDE2C63
:1019CC004208C600C017FF30BE05FF30BF05FF3010
:1019DC00C0050030C1059630C702C71FF62CF72C86
:1019EC00112D4708803A973E0318FD2CFE2CFF2C36
:1019FC00CC2C01300310C10CC00CBF0CBE0CFF3E34
:101A0C00031D002D0130C2004208C707031D0F2D16
:101A1C00102DFF2C282D20304702031C162D172DBE
:101A2C00232DCC2C0130C2000310BE0DBF0DC00DF8
:101A3C00C10DC20B1A2D0130C7024708031D272DFB
:101A4C00282D182D460803192C2D2D2D382DBE09A7
:101A5C00BF09C009C109BE0A0319BF0A0319C00A8C
:101A6C000319C10A08000B1D3C2D3D2DB02D61083A
:101A7C00D1006008D0000A128A1577260A128A153E
:101A8C008312031386016708F1006608F0000A123E
:101A9C008A11E2270A128A1583120313DA00DB017A
:101AAC005A08E4005B08E5006408880004308600EE
:101ABC001A3083120313DB00F730DA00DA0B642DD3
:101ACC00DB0B642D692D8312031386016908F10069
:101ADC006808F0000A128A11E2270A128A1583128A
:101AEC000313DA00DB015A08E4005B08E500640824
:101AFC008800023086001A3083120313DB00F730A3
:101B0C00DA00DA0B872DDB0B872D8C2D8312031358
:101B1C0086016B08F1006A08F0000A128A11E227AC
:101B2C000A128A1583120313DA00DB015A08E40047
:101B3C005B08E50064088800013086001A308312C7
:101B4C000313DB00F730DA00DA0BAA2DDB0BAA2D1E
:101B5C00AF2D0B11831203135F08FF005E088A0080
:101B6C005D0884005C0E8300FE0E7E0E090083125D
:101B7C000313B00030080319C42DC52DD92DAB1F8C
:101B8C00C82DC92DD92D2809B2002909B3002A095D
:101B9C00B4002B09B500B20A0319B30A0319B40A2D
:101BAC000319B50AE12D2B08B5002A08B400290841
:101BBC00B3002808B2002B082A0429042804031DAA
:101BCC00E82DE92DF22D0030AB000030AA000030DA
:101BDC00A9000030A800762E9630B100022E0130FC
:101BEC00AC002C08B10701300310B50CB40CB30CCD
:101BFC00B20CFF3E031DFA2DFE303505031D072EDA
:101C0C00082EF52D242E0130AC002C08B107013024
:101C1C00B207003003180130B3070030031801304D
:101C2C00B407003003180130B50701300310B50CB0
:101C3C00B40CB30CB20CFF3E031D1C2EFF3035054B
:101C4C00031D292E2A2E092E362E0130B102013009
:101C5C00AC000310B20DB30DB40DB50DAC0B2F2EA3
:101C6C00B41B392E3A2E402E0230310203183F2E6F
:101C7C00402E2B2E3118432E442E4C2EFF30B20505
:101C8C00FF30B3057F30B405FF30B5050310B10C40
:101C9C003108AC00AD01AE01AF0118300310AC0D32
:101CAC00AD0DAE0DAF0DFF3E031D542E2C08B2042E
:101CBC002D08B3042E08B4042F08B50430080319FA
:101CCC00682E692E6E2EAB1F6C2E6D2E6E2EB517D8
:101CDC003508AB003408AA003308A9003208A80064
:101CEC000800003083120313B9000030B800003034
:101CFC00B7000030B6006430F2000030F300510839
:101D0C00F1005008F0000A128A15FA230A128A15FB
:101D1C00700883120313A8007108A9000030A91BD6
:101D2C00FF30AA00AB0001300A128A15BD250A1239
:101D3C008A15831203132B08BD002A08BC0029083E
:101D4C00BB002808BA000A128A1137200A128A1519
:101D5C00831203133908D9003808D8003708D70084
:101D6C003608D6005908F7005808F6005708F50051
:101D7C005608F4004230F300C830F2000030F10095
:101D8C000030F0000A128A11E2250A128A15730833
:101D9C0083120313C1007208C0007108BF007008E1
:101DAC00BE000A128A15C1240A128A158312031363
:101DBC006C0884003E0883138000840A3F0880006E
:101DCC005908BD005808BC005708BB005608BA009B
:101DDC006430F2000030F3006C0884000008F0005E
:101DEC00840A0008F1000A128A15FA230A128A15CD
:101DFC00700883120313A8007108A9000030A91BF6
:101E0C00FF30AA00AB0001300A128A15BD250A1258
:101E1C008A15831203132B08B9002A08B800290865
:101E2C00B7002808B6000A128A15D6230A128A159A
:101E3C00831203133908C1003808C0003708BF00EB
:101E4C003608BE000A128A15C1240A128A1583129A
:101E5C0003133E08D2003F08D3000030D31BFF30E1
:101E6C00D400D5005508AB005408AA005308A900AB
:101E7C005208A80001300A128A15BD250A128A15CB
:101E8C00831203132B08D9002A08D8002908D7007D
:101E9C002808D6005908F7005808F6005708F5002E
:101EAC005608F4004130F3002030F2000030F1000D
:101EBC000030F0000A128A11E2250A128A15730802
:101ECC0083120313C1007208C0007108BF007008B0
:101EDC00BE000A128A15C1240A128A158312031332
:101EEC006D0884003E0883138000840A3F0880003C
:101EFC005908BD005808BC005708BB005608BA006A
:101F0C000A30F2000030F3006D0884000008F00085
:101F1C00840A0008F1000A128A15FA230A128A159B
:101F2C00700883120313A8007108A9000030A91BC4
:101F3C00FF30AA00AB0001300A128A15BD250A1227
:101F4C008A15831203132B08B9002A08B800290834
:101F5C00B7002808B6000A128A15D6230A128A1569
:101F6C00831203133908C1003808C0003708BF00BA
:101F7C003608BE000A128A15C1240A128A15831269
:101F8C0003133E08D2003F08D3000030D31BFF30B0
:101F9C00D400D5005508AB005408AA005308A9007A
:101FAC005208A80001300A128A15BD250A128A159A
:101FBC00831203132B08D9002A08D8002908D7004C
:101FCC002808D6005908C1005808C0005708BF009F
:101FDC005608BE000A128A15C1240A128A158312E9
:101FEC0003136E0884003E0883138000840A3F08A4
:041FFC008000080059
:08400000FF3FFF3FFF3FFF3FC0
:04400E00D420FF3F7C
:00000001FF
